{
  "_format": "hh-sol-artifact-1",
  "contractName": "NFTMarketplace",
  "sourceName": "contracts/NFTMarketplace.sol",
  "abi": [
    {
      "inputs": [],
      "stateMutability": "nonpayable",
      "type": "constructor"
    },
    {
      "anonymous": false,
      "inputs": [
        {
          "indexed": true,
          "internalType": "address",
          "name": "owner",
          "type": "address"
        },
        {
          "indexed": true,
          "internalType": "address",
          "name": "approved",
          "type": "address"
        },
        {
          "indexed": true,
          "internalType": "uint256",
          "name": "tokenId",
          "type": "uint256"
        }
      ],
      "name": "Approval",
      "type": "event"
    },
    {
      "anonymous": false,
      "inputs": [
        {
          "indexed": true,
          "internalType": "address",
          "name": "owner",
          "type": "address"
        },
        {
          "indexed": true,
          "internalType": "address",
          "name": "operator",
          "type": "address"
        },
        {
          "indexed": false,
          "internalType": "bool",
          "name": "approved",
          "type": "bool"
        }
      ],
      "name": "ApprovalForAll",
      "type": "event"
    },
    {
      "anonymous": false,
      "inputs": [
        {
          "indexed": true,
          "internalType": "uint256",
          "name": "tokenId",
          "type": "uint256"
        },
        {
          "indexed": false,
          "internalType": "address",
          "name": "seller",
          "type": "address"
        },
        {
          "indexed": false,
          "internalType": "address",
          "name": "owner",
          "type": "address"
        },
        {
          "indexed": false,
          "internalType": "uint256",
          "name": "price",
          "type": "uint256"
        },
        {
          "indexed": false,
          "internalType": "bool",
          "name": "sold",
          "type": "bool"
        }
      ],
      "name": "MarketItemCreated",
      "type": "event"
    },
    {
      "anonymous": false,
      "inputs": [
        {
          "indexed": true,
          "internalType": "address",
          "name": "from",
          "type": "address"
        },
        {
          "indexed": true,
          "internalType": "address",
          "name": "to",
          "type": "address"
        },
        {
          "indexed": true,
          "internalType": "uint256",
          "name": "tokenId",
          "type": "uint256"
        }
      ],
      "name": "Transfer",
      "type": "event"
    },
    {
      "inputs": [
        {
          "internalType": "address",
          "name": "to",
          "type": "address"
        },
        {
          "internalType": "uint256",
          "name": "tokenId",
          "type": "uint256"
        }
      ],
      "name": "approve",
      "outputs": [],
      "stateMutability": "nonpayable",
      "type": "function"
    },
    {
      "inputs": [
        {
          "internalType": "address",
          "name": "owner",
          "type": "address"
        }
      ],
      "name": "balanceOf",
      "outputs": [
        {
          "internalType": "uint256",
          "name": "",
          "type": "uint256"
        }
      ],
      "stateMutability": "view",
      "type": "function"
    },
    {
      "inputs": [
        {
          "internalType": "uint256",
          "name": "tokenId",
          "type": "uint256"
        }
      ],
      "name": "createMarketItem",
      "outputs": [],
      "stateMutability": "payable",
      "type": "function"
    },
    {
      "inputs": [
        {
          "internalType": "string",
          "name": "tokenURI",
          "type": "string"
        },
        {
          "internalType": "uint256",
          "name": "price",
          "type": "uint256"
        }
      ],
      "name": "createToken",
      "outputs": [
        {
          "internalType": "uint256",
          "name": "",
          "type": "uint256"
        }
      ],
      "stateMutability": "payable",
      "type": "function"
    },
    {
      "inputs": [],
      "name": "fetchItemsListed",
      "outputs": [
        {
          "components": [
            {
              "internalType": "uint256",
              "name": "tokenId",
              "type": "uint256"
            },
            {
              "internalType": "address payable",
              "name": "seller",
              "type": "address"
            },
            {
              "internalType": "address payable",
              "name": "owner",
              "type": "address"
            },
            {
              "internalType": "uint256",
              "name": "price",
              "type": "uint256"
            },
            {
              "internalType": "bool",
              "name": "sold",
              "type": "bool"
            }
          ],
          "internalType": "struct NFTMarketplace.MarketItem[]",
          "name": "",
          "type": "tuple[]"
        }
      ],
      "stateMutability": "view",
      "type": "function"
    },
    {
      "inputs": [],
      "name": "fetchMarketItems",
      "outputs": [
        {
          "components": [
            {
              "internalType": "uint256",
              "name": "tokenId",
              "type": "uint256"
            },
            {
              "internalType": "address payable",
              "name": "seller",
              "type": "address"
            },
            {
              "internalType": "address payable",
              "name": "owner",
              "type": "address"
            },
            {
              "internalType": "uint256",
              "name": "price",
              "type": "uint256"
            },
            {
              "internalType": "bool",
              "name": "sold",
              "type": "bool"
            }
          ],
          "internalType": "struct NFTMarketplace.MarketItem[]",
          "name": "",
          "type": "tuple[]"
        }
      ],
      "stateMutability": "view",
      "type": "function"
    },
    {
      "inputs": [],
      "name": "fetchMyNFTs",
      "outputs": [
        {
          "components": [
            {
              "internalType": "uint256",
              "name": "tokenId",
              "type": "uint256"
            },
            {
              "internalType": "address payable",
              "name": "seller",
              "type": "address"
            },
            {
              "internalType": "address payable",
              "name": "owner",
              "type": "address"
            },
            {
              "internalType": "uint256",
              "name": "price",
              "type": "uint256"
            },
            {
              "internalType": "bool",
              "name": "sold",
              "type": "bool"
            }
          ],
          "internalType": "struct NFTMarketplace.MarketItem[]",
          "name": "",
          "type": "tuple[]"
        }
      ],
      "stateMutability": "view",
      "type": "function"
    },
    {
      "inputs": [
        {
          "internalType": "uint256",
          "name": "tokenId",
          "type": "uint256"
        }
      ],
      "name": "getApproved",
      "outputs": [
        {
          "internalType": "address",
          "name": "",
          "type": "address"
        }
      ],
      "stateMutability": "view",
      "type": "function"
    },
    {
      "inputs": [],
      "name": "getListingPrice",
      "outputs": [
        {
          "internalType": "uint256",
          "name": "",
          "type": "uint256"
        }
      ],
      "stateMutability": "view",
      "type": "function"
    },
    {
      "inputs": [
        {
          "internalType": "address",
          "name": "owner",
          "type": "address"
        },
        {
          "internalType": "address",
          "name": "operator",
          "type": "address"
        }
      ],
      "name": "isApprovedForAll",
      "outputs": [
        {
          "internalType": "bool",
          "name": "",
          "type": "bool"
        }
      ],
      "stateMutability": "view",
      "type": "function"
    },
    {
      "inputs": [],
      "name": "name",
      "outputs": [
        {
          "internalType": "string",
          "name": "",
          "type": "string"
        }
      ],
      "stateMutability": "view",
      "type": "function"
    },
    {
      "inputs": [
        {
          "internalType": "uint256",
          "name": "tokenId",
          "type": "uint256"
        }
      ],
      "name": "ownerOf",
      "outputs": [
        {
          "internalType": "address",
          "name": "",
          "type": "address"
        }
      ],
      "stateMutability": "view",
      "type": "function"
    },
    {
      "inputs": [
        {
          "internalType": "uint256",
          "name": "tokenId",
          "type": "uint256"
        },
        {
          "internalType": "uint256",
          "name": "price",
          "type": "uint256"
        }
      ],
      "name": "resellToken",
      "outputs": [],
      "stateMutability": "payable",
      "type": "function"
    },
    {
      "inputs": [
        {
          "internalType": "address",
          "name": "from",
          "type": "address"
        },
        {
          "internalType": "address",
          "name": "to",
          "type": "address"
        },
        {
          "internalType": "uint256",
          "name": "tokenId",
          "type": "uint256"
        }
      ],
      "name": "safeTransferFrom",
      "outputs": [],
      "stateMutability": "nonpayable",
      "type": "function"
    },
    {
      "inputs": [
        {
          "internalType": "address",
          "name": "from",
          "type": "address"
        },
        {
          "internalType": "address",
          "name": "to",
          "type": "address"
        },
        {
          "internalType": "uint256",
          "name": "tokenId",
          "type": "uint256"
        },
        {
          "internalType": "bytes",
          "name": "_data",
          "type": "bytes"
        }
      ],
      "name": "safeTransferFrom",
      "outputs": [],
      "stateMutability": "nonpayable",
      "type": "function"
    },
    {
      "inputs": [
        {
          "internalType": "address",
          "name": "operator",
          "type": "address"
        },
        {
          "internalType": "bool",
          "name": "approved",
          "type": "bool"
        }
      ],
      "name": "setApprovalForAll",
      "outputs": [],
      "stateMutability": "nonpayable",
      "type": "function"
    },
    {
      "inputs": [
        {
          "internalType": "bytes4",
          "name": "interfaceId",
          "type": "bytes4"
        }
      ],
      "name": "supportsInterface",
      "outputs": [
        {
          "internalType": "bool",
          "name": "",
          "type": "bool"
        }
      ],
      "stateMutability": "view",
      "type": "function"
    },
    {
      "inputs": [],
      "name": "symbol",
      "outputs": [
        {
          "internalType": "string",
          "name": "",
          "type": "string"
        }
      ],
      "stateMutability": "view",
      "type": "function"
    },
    {
      "inputs": [
        {
          "internalType": "uint256",
          "name": "tokenId",
          "type": "uint256"
        }
      ],
      "name": "tokenURI",
      "outputs": [
        {
          "internalType": "string",
          "name": "",
          "type": "string"
        }
      ],
      "stateMutability": "view",
      "type": "function"
    },
    {
      "inputs": [
        {
          "internalType": "address",
          "name": "from",
          "type": "address"
        },
        {
          "internalType": "address",
          "name": "to",
          "type": "address"
        },
        {
          "internalType": "uint256",
          "name": "tokenId",
          "type": "uint256"
        }
      ],
      "name": "transferFrom",
      "outputs": [],
      "stateMutability": "nonpayable",
      "type": "function"
    },
    {
      "inputs": [
        {
          "internalType": "uint256",
          "name": "_listingPrice",
          "type": "uint256"
        }
      ],
      "name": "updateListingPrice",
      "outputs": [],
      "stateMutability": "payable",
      "type": "function"
    }
  ],
  "bytecode": "0x60806040526658d15e176280006009553480156200001c57600080fd5b506040518060400160405280600a81526020017f466c6f20546f6b656e73000000000000000000000000000000000000000000008152506040518060400160405280600481526020017f464c4f4f000000000000000000000000000000000000000000000000000000008152508160009080519060200190620000a192919062000104565b508060019080519060200190620000ba92919062000104565b50505033600a60006101000a81548173ffffffffffffffffffffffffffffffffffffffff021916908373ffffffffffffffffffffffffffffffffffffffff16021790555062000219565b8280546200011290620001b4565b90600052602060002090601f01602090048101928262000136576000855562000182565b82601f106200015157805160ff191683800117855562000182565b8280016001018555821562000182579182015b828111156200018157825182559160200191906001019062000164565b5b50905062000191919062000195565b5090565b5b80821115620001b057600081600090555060010162000196565b5090565b60006002820490506001821680620001cd57607f821691505b60208210811415620001e457620001e3620001ea565b5b50919050565b7f4e487b7100000000000000000000000000000000000000000000000000000000600052602260045260246000fd5b61427e80620002296000396000f3fe60806040526004361061012a5760003560e01c80636352211e116100ab578063a22cb4651161006f578063a22cb465146103ec578063ae677aa314610415578063b88d4fde14610431578063c87b56dd1461045a578063e219fc7514610497578063e985e9c5146104b35761012a565b80636352211e146102fb5780636d983dd81461033857806370a082311461035457806372b3b6201461039157806395d89b41146103c15761012a565b806312e85585116100f257806312e8558514610228578063202e37401461025357806323b872dd1461027e57806342842e0e146102a757806345f8fa80146102d05761012a565b806301ffc9a71461012f57806306fdde031461016c578063081812fc14610197578063095ea7b3146101d45780630f08efe0146101fd575b600080fd5b34801561013b57600080fd5b5061015660048036038101906101519190612e9c565b6104f0565b6040516101639190613553565b60405180910390f35b34801561017857600080fd5b506101816105d2565b60405161018e919061356e565b60405180910390f35b3480156101a357600080fd5b506101be60048036038101906101b99190612f42565b610664565b6040516101cb9190613485565b60405180910390f35b3480156101e057600080fd5b506101fb60048036038101906101f69190612e60565b6106e9565b005b34801561020957600080fd5b50610212610801565b60405161021f9190613531565b60405180910390f35b34801561023457600080fd5b5061023d610ab6565b60405161024a9190613830565b60405180910390f35b34801561025f57600080fd5b50610268610ac0565b6040516102759190613531565b60405180910390f35b34801561028a57600080fd5b506102a560048036038101906102a09190612d5a565b610dfa565b005b3480156102b357600080fd5b506102ce60048036038101906102c99190612d5a565b610e5a565b005b3480156102dc57600080fd5b506102e5610e7a565b6040516102f29190613531565b60405180910390f35b34801561030757600080fd5b50610322600480360381019061031d9190612f42565b6111b4565b60405161032f9190613485565b60405180910390f35b610352600480360381019061034d9190612f42565b611266565b005b34801561036057600080fd5b5061037b60048036038101906103769190612cf5565b61149e565b6040516103889190613830565b60405180910390f35b6103ab60048036038101906103a69190612eee565b611556565b6040516103b89190613830565b60405180910390f35b3480156103cd57600080fd5b506103d6611598565b6040516103e3919061356e565b60405180910390f35b3480156103f857600080fd5b50610413600480360381019061040e9190612e24565b61162a565b005b61042f600480360381019061042a9190612f42565b611640565b005b34801561043d57600080fd5b5061045860048036038101906104539190612da9565b6116da565b005b34801561046657600080fd5b50610481600480360381019061047c9190612f42565b61173c565b60405161048e919061356e565b60405180910390f35b6104b160048036038101906104ac9190612f6b565b61188e565b005b3480156104bf57600080fd5b506104da60048036038101906104d59190612d1e565b611a83565b6040516104e79190613553565b60405180910390f35b60007f80ac58cd000000000000000000000000000000000000000000000000000000007bffffffffffffffffffffffffffffffffffffffffffffffffffffffff1916827bffffffffffffffffffffffffffffffffffffffffffffffffffffffff191614806105bb57507f5b5e139f000000000000000000000000000000000000000000000000000000007bffffffffffffffffffffffffffffffffffffffffffffffffffffffff1916827bffffffffffffffffffffffffffffffffffffffffffffffffffffffff1916145b806105cb57506105ca82611b17565b5b9050919050565b6060600080546105e190613ad1565b80601f016020809104026020016040519081016040528092919081815260200182805461060d90613ad1565b801561065a5780601f1061062f5761010080835404028352916020019161065a565b820191906000526020600020905b81548152906001019060200180831161063d57829003601f168201915b5050505050905090565b600061066f82611b81565b6106ae576040517f08c379a00000000000000000000000000000000000000000000000000000000081526004016106a590613790565b60405180910390fd5b6004600083815260200190815260200160002060009054906101000a900473ffffffffffffffffffffffffffffffffffffffff169050919050565b60006106f4826111b4565b90508073ffffffffffffffffffffffffffffffffffffffff168373ffffffffffffffffffffffffffffffffffffffff161415610765576040517f08c379a000000000000000000000000000000000000000000000000000000000815260040161075c906137f0565b60405180910390fd5b8073ffffffffffffffffffffffffffffffffffffffff16610784611bed565b73ffffffffffffffffffffffffffffffffffffffff1614806107b357506107b2816107ad611bed565b611a83565b5b6107f2576040517f08c379a00000000000000000000000000000000000000000000000000000000081526004016107e990613690565b60405180910390fd5b6107fc8383611bf5565b505050565b6060600061080f6007611cae565b9050600061081d6008611cae565b6108276007611cae565b61083191906139d5565b90506000808267ffffffffffffffff811115610876577f4e487b7100000000000000000000000000000000000000000000000000000000600052604160045260246000fd5b6040519080825280602002602001820160405280156108af57816020015b61089c612abc565b8152602001906001900390816108945790505b50905060005b84811015610aab573073ffffffffffffffffffffffffffffffffffffffff16600b60006001846108e5919061394e565b815260200190815260200160002060020160009054906101000a900473ffffffffffffffffffffffffffffffffffffffff1673ffffffffffffffffffffffffffffffffffffffff161415610a98576000600182610942919061394e565b90506000600b60008381526020019081526020016000209050806040518060a0016040529081600082015481526020016001820160009054906101000a900473ffffffffffffffffffffffffffffffffffffffff1673ffffffffffffffffffffffffffffffffffffffff1673ffffffffffffffffffffffffffffffffffffffff1681526020016002820160009054906101000a900473ffffffffffffffffffffffffffffffffffffffff1673ffffffffffffffffffffffffffffffffffffffff1673ffffffffffffffffffffffffffffffffffffffff168152602001600382015481526020016004820160009054906101000a900460ff161515151581525050848681518110610a7b577f4e487b7100000000000000000000000000000000000000000000000000000000600052603260045260246000fd5b6020026020010181905250600185610a93919061394e565b945050505b8080610aa390613b34565b9150506108b5565b508094505050505090565b6000600954905090565b60606000610ace6007611cae565b905060008060005b83811015610b77573373ffffffffffffffffffffffffffffffffffffffff16600b6000600184610b06919061394e565b815260200190815260200160002060020160009054906101000a900473ffffffffffffffffffffffffffffffffffffffff1673ffffffffffffffffffffffffffffffffffffffff161415610b6457600183610b61919061394e565b92505b8080610b6f90613b34565b915050610ad6565b5060008267ffffffffffffffff811115610bba577f4e487b7100000000000000000000000000000000000000000000000000000000600052604160045260246000fd5b604051908082528060200260200182016040528015610bf357816020015b610be0612abc565b815260200190600190039081610bd85790505b50905060005b84811015610def573373ffffffffffffffffffffffffffffffffffffffff16600b6000600184610c29919061394e565b815260200190815260200160002060020160009054906101000a900473ffffffffffffffffffffffffffffffffffffffff1673ffffffffffffffffffffffffffffffffffffffff161415610ddc576000600182610c86919061394e565b90506000600b60008381526020019081526020016000209050806040518060a0016040529081600082015481526020016001820160009054906101000a900473ffffffffffffffffffffffffffffffffffffffff1673ffffffffffffffffffffffffffffffffffffffff1673ffffffffffffffffffffffffffffffffffffffff1681526020016002820160009054906101000a900473ffffffffffffffffffffffffffffffffffffffff1673ffffffffffffffffffffffffffffffffffffffff1673ffffffffffffffffffffffffffffffffffffffff168152602001600382015481526020016004820160009054906101000a900460ff161515151581525050848681518110610dbf577f4e487b7100000000000000000000000000000000000000000000000000000000600052603260045260246000fd5b6020026020010181905250600185610dd7919061394e565b945050505b8080610de790613b34565b915050610bf9565b508094505050505090565b610e0b610e05611bed565b82611cbc565b610e4a576040517f08c379a0000000000000000000000000000000000000000000000000000000008152600401610e4190613810565b60405180910390fd5b610e55838383611d9a565b505050565b610e75838383604051806020016040528060008152506116da565b505050565b60606000610e886007611cae565b905060008060005b83811015610f31573373ffffffffffffffffffffffffffffffffffffffff16600b6000600184610ec0919061394e565b815260200190815260200160002060010160009054906101000a900473ffffffffffffffffffffffffffffffffffffffff1673ffffffffffffffffffffffffffffffffffffffff161415610f1e57600183610f1b919061394e565b92505b8080610f2990613b34565b915050610e90565b5060008267ffffffffffffffff811115610f74577f4e487b7100000000000000000000000000000000000000000000000000000000600052604160045260246000fd5b604051908082528060200260200182016040528015610fad57816020015b610f9a612abc565b815260200190600190039081610f925790505b50905060005b848110156111a9573373ffffffffffffffffffffffffffffffffffffffff16600b6000600184610fe3919061394e565b815260200190815260200160002060010160009054906101000a900473ffffffffffffffffffffffffffffffffffffffff1673ffffffffffffffffffffffffffffffffffffffff161415611196576000600182611040919061394e565b90506000600b60008381526020019081526020016000209050806040518060a0016040529081600082015481526020016001820160009054906101000a900473ffffffffffffffffffffffffffffffffffffffff1673ffffffffffffffffffffffffffffffffffffffff1673ffffffffffffffffffffffffffffffffffffffff1681526020016002820160009054906101000a900473ffffffffffffffffffffffffffffffffffffffff1673ffffffffffffffffffffffffffffffffffffffff1673ffffffffffffffffffffffffffffffffffffffff168152602001600382015481526020016004820160009054906101000a900460ff161515151581525050848681518110611179577f4e487b7100000000000000000000000000000000000000000000000000000000600052603260045260246000fd5b6020026020010181905250600185611191919061394e565b945050505b80806111a190613b34565b915050610fb3565b508094505050505090565b6000806002600084815260200190815260200160002060009054906101000a900473ffffffffffffffffffffffffffffffffffffffff169050600073ffffffffffffffffffffffffffffffffffffffff168173ffffffffffffffffffffffffffffffffffffffff16141561125d576040517f08c379a0000000000000000000000000000000000000000000000000000000008152600401611254906136d0565b60405180910390fd5b80915050919050565b6000600b60008381526020019081526020016000206003015490508034146112c3576040517f08c379a00000000000000000000000000000000000000000000000000000000081526004016112ba90613730565b60405180910390fd5b33600b600084815260200190815260200160002060020160006101000a81548173ffffffffffffffffffffffffffffffffffffffff021916908373ffffffffffffffffffffffffffffffffffffffff1602179055506001600b600084815260200190815260200160002060040160006101000a81548160ff0219169083151502179055506000600b600084815260200190815260200160002060010160006101000a81548173ffffffffffffffffffffffffffffffffffffffff021916908373ffffffffffffffffffffffffffffffffffffffff1602179055506113a76008612001565b6113b2303384611d9a565b600a60009054906101000a900473ffffffffffffffffffffffffffffffffffffffff1673ffffffffffffffffffffffffffffffffffffffff166108fc6009549081150290604051600060405180830381858888f1935050505015801561141c573d6000803e3d6000fd5b50600b600083815260200190815260200160002060010160009054906101000a900473ffffffffffffffffffffffffffffffffffffffff1673ffffffffffffffffffffffffffffffffffffffff166108fc349081150290604051600060405180830381858888f19350505050158015611499573d6000803e3d6000fd5b505050565b60008073ffffffffffffffffffffffffffffffffffffffff168273ffffffffffffffffffffffffffffffffffffffff16141561150f576040517f08c379a0000000000000000000000000000000000000000000000000000000008152600401611506906136b0565b60405180910390fd5b600360008373ffffffffffffffffffffffffffffffffffffffff1673ffffffffffffffffffffffffffffffffffffffff168152602001908152602001600020549050919050565b60006115626007612001565b600061156e6007611cae565b905061157a3382612017565b61158481856121f1565b61158e8184612265565b8091505092915050565b6060600180546115a790613ad1565b80601f01602080910402602001604051908101604052809291908181526020018280546115d390613ad1565b80156116205780601f106115f557610100808354040283529160200191611620565b820191906000526020600020905b81548152906001019060200180831161160357829003601f168201915b5050505050905090565b61163c611635611bed565b8383612468565b5050565b3373ffffffffffffffffffffffffffffffffffffffff16600a60009054906101000a900473ffffffffffffffffffffffffffffffffffffffff1673ffffffffffffffffffffffffffffffffffffffff16146116d0576040517f08c379a00000000000000000000000000000000000000000000000000000000081526004016116c790613610565b60405180910390fd5b8060098190555050565b6116eb6116e5611bed565b83611cbc565b61172a576040517f08c379a000000000000000000000000000000000000000000000000000000000815260040161172190613810565b60405180910390fd5b611736848484846125d5565b50505050565b606061174782611b81565b611786576040517f08c379a000000000000000000000000000000000000000000000000000000000815260040161177d90613770565b60405180910390fd5b60006006600084815260200190815260200160002080546117a690613ad1565b80601f01602080910402602001604051908101604052809291908181526020018280546117d290613ad1565b801561181f5780601f106117f45761010080835404028352916020019161181f565b820191906000526020600020905b81548152906001019060200180831161180257829003601f168201915b505050505090506000611830612631565b9050600081511415611846578192505050611889565b60008251111561187b578082604051602001611863929190613461565b60405160208183030381529060405292505050611889565b61188484612648565b925050505b919050565b3373ffffffffffffffffffffffffffffffffffffffff16600b600084815260200190815260200160002060020160009054906101000a900473ffffffffffffffffffffffffffffffffffffffff1673ffffffffffffffffffffffffffffffffffffffff1614611932576040517f08c379a000000000000000000000000000000000000000000000000000000000815260040161192990613710565b60405180910390fd5b6009543414611976576040517f08c379a000000000000000000000000000000000000000000000000000000000815260040161196d90613730565b60405180910390fd5b6000600b600084815260200190815260200160002060040160006101000a81548160ff02191690831515021790555080600b60008481526020019081526020016000206003018190555033600b600084815260200190815260200160002060010160006101000a81548173ffffffffffffffffffffffffffffffffffffffff021916908373ffffffffffffffffffffffffffffffffffffffff16021790555030600b600084815260200190815260200160002060020160006101000a81548173ffffffffffffffffffffffffffffffffffffffff021916908373ffffffffffffffffffffffffffffffffffffffff160217905550611a7460086126ef565b611a7f333084611d9a565b5050565b6000600560008473ffffffffffffffffffffffffffffffffffffffff1673ffffffffffffffffffffffffffffffffffffffff16815260200190815260200160002060008373ffffffffffffffffffffffffffffffffffffffff1673ffffffffffffffffffffffffffffffffffffffff16815260200190815260200160002060009054906101000a900460ff16905092915050565b60007f01ffc9a7000000000000000000000000000000000000000000000000000000007bffffffffffffffffffffffffffffffffffffffffffffffffffffffff1916827bffffffffffffffffffffffffffffffffffffffffffffffffffffffff1916149050919050565b60008073ffffffffffffffffffffffffffffffffffffffff166002600084815260200190815260200160002060009054906101000a900473ffffffffffffffffffffffffffffffffffffffff1673ffffffffffffffffffffffffffffffffffffffff1614159050919050565b600033905090565b816004600083815260200190815260200160002060006101000a81548173ffffffffffffffffffffffffffffffffffffffff021916908373ffffffffffffffffffffffffffffffffffffffff160217905550808273ffffffffffffffffffffffffffffffffffffffff16611c68836111b4565b73ffffffffffffffffffffffffffffffffffffffff167f8c5be1e5ebec7d5bd14f71427d1e84f3dd0314c0f7b2291e5b200ac8c7c3b92560405160405180910390a45050565b600081600001549050919050565b6000611cc782611b81565b611d06576040517f08c379a0000000000000000000000000000000000000000000000000000000008152600401611cfd90613670565b60405180910390fd5b6000611d11836111b4565b90508073ffffffffffffffffffffffffffffffffffffffff168473ffffffffffffffffffffffffffffffffffffffff161480611d8057508373ffffffffffffffffffffffffffffffffffffffff16611d6884610664565b73ffffffffffffffffffffffffffffffffffffffff16145b80611d915750611d908185611a83565b5b91505092915050565b8273ffffffffffffffffffffffffffffffffffffffff16611dba826111b4565b73ffffffffffffffffffffffffffffffffffffffff1614611e10576040517f08c379a0000000000000000000000000000000000000000000000000000000008152600401611e07906135d0565b60405180910390fd5b600073ffffffffffffffffffffffffffffffffffffffff168273ffffffffffffffffffffffffffffffffffffffff161415611e80576040517f08c379a0000000000000000000000000000000000000000000000000000000008152600401611e7790613630565b60405180910390fd5b611e8b83838361274b565b611e96600082611bf5565b6001600360008573ffffffffffffffffffffffffffffffffffffffff1673ffffffffffffffffffffffffffffffffffffffff1681526020019081526020016000206000828254611ee691906139d5565b925050819055506001600360008473ffffffffffffffffffffffffffffffffffffffff1673ffffffffffffffffffffffffffffffffffffffff1681526020019081526020016000206000828254611f3d919061394e565b92505081905550816002600083815260200190815260200160002060006101000a81548173ffffffffffffffffffffffffffffffffffffffff021916908373ffffffffffffffffffffffffffffffffffffffff160217905550808273ffffffffffffffffffffffffffffffffffffffff168473ffffffffffffffffffffffffffffffffffffffff167fddf252ad1be2c89b69c2b068fc378daa952ba7f163c4a11628f55a4df523b3ef60405160405180910390a4611ffc838383612750565b505050565b6001816000016000828254019250508190555050565b600073ffffffffffffffffffffffffffffffffffffffff168273ffffffffffffffffffffffffffffffffffffffff161415612087576040517f08c379a000000000000000000000000000000000000000000000000000000000815260040161207e90613750565b60405180910390fd5b61209081611b81565b156120d0576040517f08c379a00000000000000000000000000000000000000000000000000000000081526004016120c7906135f0565b60405180910390fd5b6120dc6000838361274b565b6001600360008473ffffffffffffffffffffffffffffffffffffffff1673ffffffffffffffffffffffffffffffffffffffff168152602001908152602001600020600082825461212c919061394e565b92505081905550816002600083815260200190815260200160002060006101000a81548173ffffffffffffffffffffffffffffffffffffffff021916908373ffffffffffffffffffffffffffffffffffffffff160217905550808273ffffffffffffffffffffffffffffffffffffffff16600073ffffffffffffffffffffffffffffffffffffffff167fddf252ad1be2c89b69c2b068fc378daa952ba7f163c4a11628f55a4df523b3ef60405160405180910390a46121ed60008383612750565b5050565b6121fa82611b81565b612239576040517f08c379a0000000000000000000000000000000000000000000000000000000008152600401612230906136f0565b60405180910390fd5b80600660008481526020019081526020016000209080519060200190612260929190612b19565b505050565b600081116122a8576040517f08c379a000000000000000000000000000000000000000000000000000000000815260040161229f906137d0565b60405180910390fd5b60095434146122ec576040517f08c379a00000000000000000000000000000000000000000000000000000000081526004016122e390613730565b60405180910390fd5b6040518060a001604052808381526020013373ffffffffffffffffffffffffffffffffffffffff1681526020013073ffffffffffffffffffffffffffffffffffffffff16815260200182815260200160001515815250600b60008481526020019081526020016000206000820151816000015560208201518160010160006101000a81548173ffffffffffffffffffffffffffffffffffffffff021916908373ffffffffffffffffffffffffffffffffffffffff16021790555060408201518160020160006101000a81548173ffffffffffffffffffffffffffffffffffffffff021916908373ffffffffffffffffffffffffffffffffffffffff1602179055506060820151816003015560808201518160040160006101000a81548160ff021916908315150217905550905050612425333084611d9a565b817fb640004f1d14576d0c209e240cad0410e0d8c0c33a09375861fbadae2588a98d333084600060405161245c94939291906134a0565b60405180910390a25050565b8173ffffffffffffffffffffffffffffffffffffffff168373ffffffffffffffffffffffffffffffffffffffff1614156124d7576040517f08c379a00000000000000000000000000000000000000000000000000000000081526004016124ce90613650565b60405180910390fd5b80600560008573ffffffffffffffffffffffffffffffffffffffff1673ffffffffffffffffffffffffffffffffffffffff16815260200190815260200160002060008473ffffffffffffffffffffffffffffffffffffffff1673ffffffffffffffffffffffffffffffffffffffff16815260200190815260200160002060006101000a81548160ff0219169083151502179055508173ffffffffffffffffffffffffffffffffffffffff168373ffffffffffffffffffffffffffffffffffffffff167f17307eab39ab6107e8899845ad3d59bd9653f200f220920489ca2b5937696c31836040516125c89190613553565b60405180910390a3505050565b6125e0848484611d9a565b6125ec84848484612755565b61262b576040517f08c379a0000000000000000000000000000000000000000000000000000000008152600401612622906135b0565b60405180910390fd5b50505050565b606060405180602001604052806000815250905090565b606061265382611b81565b612692576040517f08c379a0000000000000000000000000000000000000000000000000000000008152600401612689906137b0565b60405180910390fd5b600061269c612631565b905060008151116126bc57604051806020016040528060008152506126e7565b806126c6846128ec565b6040516020016126d7929190613461565b6040516020818303038152906040525b915050919050565b6000816000015490506000811161273b576040517f08c379a000000000000000000000000000000000000000000000000000000000815260040161273290613590565b60405180910390fd5b6001810382600001819055505050565b505050565b505050565b60006127768473ffffffffffffffffffffffffffffffffffffffff16612a99565b156128df578373ffffffffffffffffffffffffffffffffffffffff1663150b7a0261279f611bed565b8786866040518563ffffffff1660e01b81526004016127c194939291906134e5565b602060405180830381600087803b1580156127db57600080fd5b505af192505050801561280c57506040513d601f19601f820116820180604052508101906128099190612ec5565b60015b61288f573d806000811461283c576040519150601f19603f3d011682016040523d82523d6000602084013e612841565b606091505b50600081511415612887576040517f08c379a000000000000000000000000000000000000000000000000000000000815260040161287e906135b0565b60405180910390fd5b805181602001fd5b63150b7a0260e01b7bffffffffffffffffffffffffffffffffffffffffffffffffffffffff1916817bffffffffffffffffffffffffffffffffffffffffffffffffffffffff1916149150506128e4565b600190505b949350505050565b60606000821415612934576040518060400160405280600181526020017f30000000000000000000000000000000000000000000000000000000000000008152509050612a94565b600082905060005b6000821461296657808061294f90613b34565b915050600a8261295f91906139a4565b915061293c565b60008167ffffffffffffffff8111156129a8577f4e487b7100000000000000000000000000000000000000000000000000000000600052604160045260246000fd5b6040519080825280601f01601f1916602001820160405280156129da5781602001600182028036833780820191505090505b5090505b60008514612a8d576001826129f391906139d5565b9150600a85612a029190613b7d565b6030612a0e919061394e565b60f81b818381518110612a4a577f4e487b7100000000000000000000000000000000000000000000000000000000600052603260045260246000fd5b60200101907effffffffffffffffffffffffffffffffffffffffffffffffffffffffffffff1916908160001a905350600a85612a8691906139a4565b94506129de565b8093505050505b919050565b6000808273ffffffffffffffffffffffffffffffffffffffff163b119050919050565b6040518060a0016040528060008152602001600073ffffffffffffffffffffffffffffffffffffffff168152602001600073ffffffffffffffffffffffffffffffffffffffff168152602001600081526020016000151581525090565b828054612b2590613ad1565b90600052602060002090601f016020900481019282612b475760008555612b8e565b82601f10612b6057805160ff1916838001178555612b8e565b82800160010185558215612b8e579182015b82811115612b8d578251825591602001919060010190612b72565b5b509050612b9b9190612b9f565b5090565b5b80821115612bb8576000816000905550600101612ba0565b5090565b6000612bcf612bca84613870565b61384b565b905082815260208101848484011115612be757600080fd5b612bf2848285613a8f565b509392505050565b6000612c0d612c08846138a1565b61384b565b905082815260208101848484011115612c2557600080fd5b612c30848285613a8f565b509392505050565b600081359050612c47816141ec565b92915050565b600081359050612c5c81614203565b92915050565b600081359050612c718161421a565b92915050565b600081519050612c868161421a565b92915050565b600082601f830112612c9d57600080fd5b8135612cad848260208601612bbc565b91505092915050565b600082601f830112612cc757600080fd5b8135612cd7848260208601612bfa565b91505092915050565b600081359050612cef81614231565b92915050565b600060208284031215612d0757600080fd5b6000612d1584828501612c38565b91505092915050565b60008060408385031215612d3157600080fd5b6000612d3f85828601612c38565b9250506020612d5085828601612c38565b9150509250929050565b600080600060608486031215612d6f57600080fd5b6000612d7d86828701612c38565b9350506020612d8e86828701612c38565b9250506040612d9f86828701612ce0565b9150509250925092565b60008060008060808587031215612dbf57600080fd5b6000612dcd87828801612c38565b9450506020612dde87828801612c38565b9350506040612def87828801612ce0565b925050606085013567ffffffffffffffff811115612e0c57600080fd5b612e1887828801612c8c565b91505092959194509250565b60008060408385031215612e3757600080fd5b6000612e4585828601612c38565b9250506020612e5685828601612c4d565b9150509250929050565b60008060408385031215612e7357600080fd5b6000612e8185828601612c38565b9250506020612e9285828601612ce0565b9150509250929050565b600060208284031215612eae57600080fd5b6000612ebc84828501612c62565b91505092915050565b600060208284031215612ed757600080fd5b6000612ee584828501612c77565b91505092915050565b60008060408385031215612f0157600080fd5b600083013567ffffffffffffffff811115612f1b57600080fd5b612f2785828601612cb6565b9250506020612f3885828601612ce0565b9150509250929050565b600060208284031215612f5457600080fd5b6000612f6284828501612ce0565b91505092915050565b60008060408385031215612f7e57600080fd5b6000612f8c85828601612ce0565b9250506020612f9d85828601612ce0565b9150509250929050565b6000612fb383836133db565b60a08301905092915050565b612fc881613a1b565b82525050565b612fd781613a09565b82525050565b6000612fe8826138e2565b612ff28185613910565b9350612ffd836138d2565b8060005b8381101561302e5781516130158882612fa7565b975061302083613903565b925050600181019050613001565b5085935050505092915050565b61304481613a2d565b82525050565b61305381613a2d565b82525050565b6000613064826138ed565b61306e8185613921565b935061307e818560208601613a9e565b61308781613c6a565b840191505092915050565b600061309d826138f8565b6130a78185613932565b93506130b7818560208601613a9e565b6130c081613c6a565b840191505092915050565b60006130d6826138f8565b6130e08185613943565b93506130f0818560208601613a9e565b80840191505092915050565b6000613109601b83613932565b915061311482613c7b565b602082019050919050565b600061312c603283613932565b915061313782613ca4565b604082019050919050565b600061314f602583613932565b915061315a82613cf3565b604082019050919050565b6000613172601c83613932565b915061317d82613d42565b602082019050919050565b6000613195603383613932565b91506131a082613d6b565b604082019050919050565b60006131b8602483613932565b91506131c382613dba565b604082019050919050565b60006131db601983613932565b91506131e682613e09565b602082019050919050565b60006131fe602c83613932565b915061320982613e32565b604082019050919050565b6000613221603883613932565b915061322c82613e81565b604082019050919050565b6000613244602a83613932565b915061324f82613ed0565b604082019050919050565b6000613267602983613932565b915061327282613f1f565b604082019050919050565b600061328a602e83613932565b915061329582613f6e565b604082019050919050565b60006132ad601b83613932565b91506132b882613fbd565b602082019050919050565b60006132d0601e83613932565b91506132db82613fe6565b602082019050919050565b60006132f3602083613932565b91506132fe8261400f565b602082019050919050565b6000613316603183613932565b915061332182614038565b604082019050919050565b6000613339602c83613932565b915061334482614087565b604082019050919050565b600061335c602f83613932565b9150613367826140d6565b604082019050919050565b600061337f601883613932565b915061338a82614125565b602082019050919050565b60006133a2602183613932565b91506133ad8261414e565b604082019050919050565b60006133c5603183613932565b91506133d08261419d565b604082019050919050565b60a0820160008201516133f16000850182613443565b5060208201516134046020850182612fbf565b5060408201516134176040850182612fbf565b50606082015161342a6060850182613443565b50608082015161343d608085018261303b565b50505050565b61344c81613a85565b82525050565b61345b81613a85565b82525050565b600061346d82856130cb565b915061347982846130cb565b91508190509392505050565b600060208201905061349a6000830184612fce565b92915050565b60006080820190506134b56000830187612fce565b6134c26020830186612fce565b6134cf6040830185613452565b6134dc606083018461304a565b95945050505050565b60006080820190506134fa6000830187612fce565b6135076020830186612fce565b6135146040830185613452565b81810360608301526135268184613059565b905095945050505050565b6000602082019050818103600083015261354b8184612fdd565b905092915050565b6000602082019050613568600083018461304a565b92915050565b600060208201905081810360008301526135888184613092565b905092915050565b600060208201905081810360008301526135a9816130fc565b9050919050565b600060208201905081810360008301526135c98161311f565b9050919050565b600060208201905081810360008301526135e981613142565b9050919050565b6000602082019050818103600083015261360981613165565b9050919050565b6000602082019050818103600083015261362981613188565b9050919050565b60006020820190508181036000830152613649816131ab565b9050919050565b60006020820190508181036000830152613669816131ce565b9050919050565b60006020820190508181036000830152613689816131f1565b9050919050565b600060208201905081810360008301526136a981613214565b9050919050565b600060208201905081810360008301526136c981613237565b9050919050565b600060208201905081810360008301526136e98161325a565b9050919050565b600060208201905081810360008301526137098161327d565b9050919050565b60006020820190508181036000830152613729816132a0565b9050919050565b60006020820190508181036000830152613749816132c3565b9050919050565b60006020820190508181036000830152613769816132e6565b9050919050565b6000602082019050818103600083015261378981613309565b9050919050565b600060208201905081810360008301526137a98161332c565b9050919050565b600060208201905081810360008301526137c98161334f565b9050919050565b600060208201905081810360008301526137e981613372565b9050919050565b6000602082019050818103600083015261380981613395565b9050919050565b60006020820190508181036000830152613829816133b8565b9050919050565b60006020820190506138456000830184613452565b92915050565b6000613855613866565b90506138618282613b03565b919050565b6000604051905090565b600067ffffffffffffffff82111561388b5761388a613c3b565b5b61389482613c6a565b9050602081019050919050565b600067ffffffffffffffff8211156138bc576138bb613c3b565b5b6138c582613c6a565b9050602081019050919050565b6000819050602082019050919050565b600081519050919050565b600081519050919050565b600081519050919050565b6000602082019050919050565b600082825260208201905092915050565b600082825260208201905092915050565b600082825260208201905092915050565b600081905092915050565b600061395982613a85565b915061396483613a85565b9250827fffffffffffffffffffffffffffffffffffffffffffffffffffffffffffffffff0382111561399957613998613bae565b5b828201905092915050565b60006139af82613a85565b91506139ba83613a85565b9250826139ca576139c9613bdd565b5b828204905092915050565b60006139e082613a85565b91506139eb83613a85565b9250828210156139fe576139fd613bae565b5b828203905092915050565b6000613a1482613a65565b9050919050565b6000613a2682613a65565b9050919050565b60008115159050919050565b60007fffffffff0000000000000000000000000000000000000000000000000000000082169050919050565b600073ffffffffffffffffffffffffffffffffffffffff82169050919050565b6000819050919050565b82818337600083830152505050565b60005b83811015613abc578082015181840152602081019050613aa1565b83811115613acb576000848401525b50505050565b60006002820490506001821680613ae957607f821691505b60208210811415613afd57613afc613c0c565b5b50919050565b613b0c82613c6a565b810181811067ffffffffffffffff82111715613b2b57613b2a613c3b565b5b80604052505050565b6000613b3f82613a85565b91507fffffffffffffffffffffffffffffffffffffffffffffffffffffffffffffffff821415613b7257613b71613bae565b5b600182019050919050565b6000613b8882613a85565b9150613b9383613a85565b925082613ba357613ba2613bdd565b5b828206905092915050565b7f4e487b7100000000000000000000000000000000000000000000000000000000600052601160045260246000fd5b7f4e487b7100000000000000000000000000000000000000000000000000000000600052601260045260246000fd5b7f4e487b7100000000000000000000000000000000000000000000000000000000600052602260045260246000fd5b7f4e487b7100000000000000000000000000000000000000000000000000000000600052604160045260246000fd5b6000601f19601f8301169050919050565b7f436f756e7465723a2064656372656d656e74206f766572666c6f770000000000600082015250565b7f4552433732313a207472616e7366657220746f206e6f6e20455243373231526560008201527f63656976657220696d706c656d656e7465720000000000000000000000000000602082015250565b7f4552433732313a207472616e736665722066726f6d20696e636f72726563742060008201527f6f776e6572000000000000000000000000000000000000000000000000000000602082015250565b7f4552433732313a20746f6b656e20616c7265616479206d696e74656400000000600082015250565b7f4f6e6c79206d61726b6574706c616365206f776e65722063616e20757064617460008201527f6520746865206c697374696e6720707269636500000000000000000000000000602082015250565b7f4552433732313a207472616e7366657220746f20746865207a65726f2061646460008201527f7265737300000000000000000000000000000000000000000000000000000000602082015250565b7f4552433732313a20617070726f766520746f2063616c6c657200000000000000600082015250565b7f4552433732313a206f70657261746f7220717565727920666f72206e6f6e657860008201527f697374656e7420746f6b656e0000000000000000000000000000000000000000602082015250565b7f4552433732313a20617070726f76652063616c6c6572206973206e6f74206f7760008201527f6e6572206e6f7220617070726f76656420666f7220616c6c0000000000000000602082015250565b7f4552433732313a2062616c616e636520717565727920666f7220746865207a6560008201527f726f206164647265737300000000000000000000000000000000000000000000602082015250565b7f4552433732313a206f776e657220717565727920666f72206e6f6e657869737460008201527f656e7420746f6b656e0000000000000000000000000000000000000000000000602082015250565b7f45524337323155524953746f726167653a2055524920736574206f66206e6f6e60008201527f6578697374656e7420746f6b656e000000000000000000000000000000000000602082015250565b7f4f6e6c79206f776e65722063616e20726573656c6c20746f6b656e0000000000600082015250565b7f5072696365206d757374206d61746368206c697374696e672070726963650000600082015250565b7f4552433732313a206d696e7420746f20746865207a65726f2061646472657373600082015250565b7f45524337323155524953746f726167653a2055524920717565727920666f722060008201527f6e6f6e6578697374656e7420746f6b656e000000000000000000000000000000602082015250565b7f4552433732313a20617070726f76656420717565727920666f72206e6f6e657860008201527f697374656e7420746f6b656e0000000000000000000000000000000000000000602082015250565b7f4552433732314d657461646174613a2055524920717565727920666f72206e6f60008201527f6e6578697374656e7420746f6b656e0000000000000000000000000000000000602082015250565b7f5072696365206d757374206265206174206c6561737420310000000000000000600082015250565b7f4552433732313a20617070726f76616c20746f2063757272656e74206f776e6560008201527f7200000000000000000000000000000000000000000000000000000000000000602082015250565b7f4552433732313a207472616e736665722063616c6c6572206973206e6f74206f60008201527f776e6572206e6f7220617070726f766564000000000000000000000000000000602082015250565b6141f581613a09565b811461420057600080fd5b50565b61420c81613a2d565b811461421757600080fd5b50565b61422381613a39565b811461422e57600080fd5b50565b61423a81613a85565b811461424557600080fd5b5056fea26469706673582212204ea9f0d12a20efd784b5d60b02c6d6b2fa1d8f9419dd9979adceb9e686c8778f64736f6c63430008040033",
  "linkReferences": {},
  "deployedLinkReferences": {}
}