{
  "_format": "hh-sol-artifact-1",
  "contractName": "NFTMarketplace",
  "sourceName": "contracts/NFTMarketplace.sol",
  "abi": [
    {
      "inputs": [],
      "stateMutability": "nonpayable",
      "type": "constructor"
    },
    {
      "anonymous": false,
      "inputs": [
        {
          "indexed": true,
          "internalType": "address",
          "name": "owner",
          "type": "address"
        },
        {
          "indexed": true,
          "internalType": "address",
          "name": "approved",
          "type": "address"
        },
        {
          "indexed": true,
          "internalType": "uint256",
          "name": "tokenId",
          "type": "uint256"
        }
      ],
      "name": "Approval",
      "type": "event"
    },
    {
      "anonymous": false,
      "inputs": [
        {
          "indexed": true,
          "internalType": "address",
          "name": "owner",
          "type": "address"
        },
        {
          "indexed": true,
          "internalType": "address",
          "name": "operator",
          "type": "address"
        },
        {
          "indexed": false,
          "internalType": "bool",
          "name": "approved",
          "type": "bool"
        }
      ],
      "name": "ApprovalForAll",
      "type": "event"
    },
    {
      "anonymous": false,
      "inputs": [
        {
          "indexed": true,
          "internalType": "uint256",
          "name": "tokenId",
          "type": "uint256"
        },
        {
          "indexed": false,
          "internalType": "address",
          "name": "seller",
          "type": "address"
        },
        {
          "indexed": false,
          "internalType": "address",
          "name": "owner",
          "type": "address"
        },
        {
          "indexed": false,
          "internalType": "uint256",
          "name": "price",
          "type": "uint256"
        },
        {
          "indexed": false,
          "internalType": "bool",
          "name": "sold",
          "type": "bool"
        }
      ],
      "name": "MarketItemCreated",
      "type": "event"
    },
    {
      "anonymous": false,
      "inputs": [
        {
          "indexed": true,
          "internalType": "address",
          "name": "from",
          "type": "address"
        },
        {
          "indexed": true,
          "internalType": "address",
          "name": "to",
          "type": "address"
        },
        {
          "indexed": true,
          "internalType": "uint256",
          "name": "tokenId",
          "type": "uint256"
        }
      ],
      "name": "Transfer",
      "type": "event"
    },
    {
      "inputs": [
        {
          "internalType": "address",
          "name": "to",
          "type": "address"
        },
        {
          "internalType": "uint256",
          "name": "tokenId",
          "type": "uint256"
        }
      ],
      "name": "approve",
      "outputs": [],
      "stateMutability": "nonpayable",
      "type": "function"
    },
    {
      "inputs": [
        {
          "internalType": "address",
          "name": "owner",
          "type": "address"
        }
      ],
      "name": "balanceOf",
      "outputs": [
        {
          "internalType": "uint256",
          "name": "",
          "type": "uint256"
        }
      ],
      "stateMutability": "view",
      "type": "function"
    },
    {
      "inputs": [
        {
          "internalType": "uint256",
          "name": "tokenId",
          "type": "uint256"
        }
      ],
      "name": "createMarketSale",
      "outputs": [],
      "stateMutability": "payable",
      "type": "function"
    },
    {
      "inputs": [
        {
          "internalType": "string",
          "name": "tokenURI",
          "type": "string"
        },
        {
          "internalType": "uint256",
          "name": "price",
          "type": "uint256"
        }
      ],
      "name": "createToken",
      "outputs": [
        {
          "internalType": "uint256",
          "name": "",
          "type": "uint256"
        }
      ],
      "stateMutability": "payable",
      "type": "function"
    },
    {
      "inputs": [],
      "name": "fetchItemsListed",
      "outputs": [
        {
          "components": [
            {
              "internalType": "uint256",
              "name": "tokenId",
              "type": "uint256"
            },
            {
              "internalType": "address payable",
              "name": "seller",
              "type": "address"
            },
            {
              "internalType": "address payable",
              "name": "owner",
              "type": "address"
            },
            {
              "internalType": "uint256",
              "name": "price",
              "type": "uint256"
            },
            {
              "internalType": "bool",
              "name": "sold",
              "type": "bool"
            }
          ],
          "internalType": "struct NFTMarketplace.MarketItem[]",
          "name": "",
          "type": "tuple[]"
        }
      ],
      "stateMutability": "view",
      "type": "function"
    },
    {
      "inputs": [],
      "name": "fetchMarketItems",
      "outputs": [
        {
          "components": [
            {
              "internalType": "uint256",
              "name": "tokenId",
              "type": "uint256"
            },
            {
              "internalType": "address payable",
              "name": "seller",
              "type": "address"
            },
            {
              "internalType": "address payable",
              "name": "owner",
              "type": "address"
            },
            {
              "internalType": "uint256",
              "name": "price",
              "type": "uint256"
            },
            {
              "internalType": "bool",
              "name": "sold",
              "type": "bool"
            }
          ],
          "internalType": "struct NFTMarketplace.MarketItem[]",
          "name": "",
          "type": "tuple[]"
        }
      ],
      "stateMutability": "view",
      "type": "function"
    },
    {
      "inputs": [],
      "name": "fetchMyItems",
      "outputs": [
        {
          "components": [
            {
              "internalType": "uint256",
              "name": "tokenId",
              "type": "uint256"
            },
            {
              "internalType": "address payable",
              "name": "seller",
              "type": "address"
            },
            {
              "internalType": "address payable",
              "name": "owner",
              "type": "address"
            },
            {
              "internalType": "uint256",
              "name": "price",
              "type": "uint256"
            },
            {
              "internalType": "bool",
              "name": "sold",
              "type": "bool"
            }
          ],
          "internalType": "struct NFTMarketplace.MarketItem[]",
          "name": "",
          "type": "tuple[]"
        }
      ],
      "stateMutability": "view",
      "type": "function"
    },
    {
      "inputs": [
        {
          "internalType": "uint256",
          "name": "tokenId",
          "type": "uint256"
        }
      ],
      "name": "getApproved",
      "outputs": [
        {
          "internalType": "address",
          "name": "",
          "type": "address"
        }
      ],
      "stateMutability": "view",
      "type": "function"
    },
    {
      "inputs": [],
      "name": "getListingPrice",
      "outputs": [
        {
          "internalType": "uint256",
          "name": "",
          "type": "uint256"
        }
      ],
      "stateMutability": "view",
      "type": "function"
    },
    {
      "inputs": [],
      "name": "getOwnerCommissionPercentage",
      "outputs": [
        {
          "internalType": "uint256",
          "name": "",
          "type": "uint256"
        }
      ],
      "stateMutability": "view",
      "type": "function"
    },
    {
      "inputs": [
        {
          "internalType": "address",
          "name": "owner",
          "type": "address"
        },
        {
          "internalType": "address",
          "name": "operator",
          "type": "address"
        }
      ],
      "name": "isApprovedForAll",
      "outputs": [
        {
          "internalType": "bool",
          "name": "",
          "type": "bool"
        }
      ],
      "stateMutability": "view",
      "type": "function"
    },
    {
      "inputs": [],
      "name": "name",
      "outputs": [
        {
          "internalType": "string",
          "name": "",
          "type": "string"
        }
      ],
      "stateMutability": "view",
      "type": "function"
    },
    {
      "inputs": [
        {
          "internalType": "uint256",
          "name": "tokenId",
          "type": "uint256"
        }
      ],
      "name": "ownerOf",
      "outputs": [
        {
          "internalType": "address",
          "name": "",
          "type": "address"
        }
      ],
      "stateMutability": "view",
      "type": "function"
    },
    {
      "inputs": [
        {
          "internalType": "uint256",
          "name": "tokenId",
          "type": "uint256"
        },
        {
          "internalType": "uint256",
          "name": "price",
          "type": "uint256"
        }
      ],
      "name": "resellToken",
      "outputs": [],
      "stateMutability": "payable",
      "type": "function"
    },
    {
      "inputs": [
        {
          "internalType": "address",
          "name": "from",
          "type": "address"
        },
        {
          "internalType": "address",
          "name": "to",
          "type": "address"
        },
        {
          "internalType": "uint256",
          "name": "tokenId",
          "type": "uint256"
        }
      ],
      "name": "safeTransferFrom",
      "outputs": [],
      "stateMutability": "nonpayable",
      "type": "function"
    },
    {
      "inputs": [
        {
          "internalType": "address",
          "name": "from",
          "type": "address"
        },
        {
          "internalType": "address",
          "name": "to",
          "type": "address"
        },
        {
          "internalType": "uint256",
          "name": "tokenId",
          "type": "uint256"
        },
        {
          "internalType": "bytes",
          "name": "_data",
          "type": "bytes"
        }
      ],
      "name": "safeTransferFrom",
      "outputs": [],
      "stateMutability": "nonpayable",
      "type": "function"
    },
    {
      "inputs": [
        {
          "internalType": "address",
          "name": "operator",
          "type": "address"
        },
        {
          "internalType": "bool",
          "name": "approved",
          "type": "bool"
        }
      ],
      "name": "setApprovalForAll",
      "outputs": [],
      "stateMutability": "nonpayable",
      "type": "function"
    },
    {
      "inputs": [
        {
          "internalType": "bytes4",
          "name": "interfaceId",
          "type": "bytes4"
        }
      ],
      "name": "supportsInterface",
      "outputs": [
        {
          "internalType": "bool",
          "name": "",
          "type": "bool"
        }
      ],
      "stateMutability": "view",
      "type": "function"
    },
    {
      "inputs": [],
      "name": "symbol",
      "outputs": [
        {
          "internalType": "string",
          "name": "",
          "type": "string"
        }
      ],
      "stateMutability": "view",
      "type": "function"
    },
    {
      "inputs": [
        {
          "internalType": "uint256",
          "name": "tokenId",
          "type": "uint256"
        }
      ],
      "name": "tokenURI",
      "outputs": [
        {
          "internalType": "string",
          "name": "",
          "type": "string"
        }
      ],
      "stateMutability": "view",
      "type": "function"
    },
    {
      "inputs": [
        {
          "internalType": "address",
          "name": "from",
          "type": "address"
        },
        {
          "internalType": "address",
          "name": "to",
          "type": "address"
        },
        {
          "internalType": "uint256",
          "name": "tokenId",
          "type": "uint256"
        }
      ],
      "name": "transferFrom",
      "outputs": [],
      "stateMutability": "nonpayable",
      "type": "function"
    },
    {
      "inputs": [
        {
          "internalType": "uint256",
          "name": "_listingPrice",
          "type": "uint256"
        }
      ],
      "name": "updateListingPrice",
      "outputs": [],
      "stateMutability": "payable",
      "type": "function"
    },
    {
      "inputs": [
        {
          "internalType": "uint256",
          "name": "_ownerCommissionPercentage",
          "type": "uint256"
        }
      ],
      "name": "updateOwnerCommissionPercentage",
      "outputs": [],
      "stateMutability": "payable",
      "type": "function"
    }
  ],
  "bytecode": "0x60806040526801158e460913d00000600955600f600a55600a546103e862000028919062000209565b600b553480156200003857600080fd5b506040518060400160405280600781526020017f41727462797465000000000000000000000000000000000000000000000000008152506040518060400160405280600381526020017f41525400000000000000000000000000000000000000000000000000000000008152508160009080519060200190620000bd92919062000120565b508060019080519060200190620000d692919062000120565b50505033600c60006101000a81548173ffffffffffffffffffffffffffffffffffffffff021916908373ffffffffffffffffffffffffffffffffffffffff160217905550620002a9565b8280546200012e9062000273565b90600052602060002090601f0160209004810192826200015257600085556200019e565b82601f106200016d57805160ff19168380011785556200019e565b828001600101855582156200019e579182015b828111156200019d57825182559160200191906001019062000180565b5b509050620001ad9190620001b1565b5090565b5b80821115620001cc576000816000905550600101620001b2565b5090565b6000819050919050565b7f4e487b7100000000000000000000000000000000000000000000000000000000600052601160045260246000fd5b60006200021682620001d0565b91506200022383620001d0565b925082821015620002395762000238620001da565b5b828203905092915050565b7f4e487b7100000000000000000000000000000000000000000000000000000000600052602260045260246000fd5b600060028204905060018216806200028c57607f821691505b60208210811415620002a357620002a262000244565b5b50919050565b6144d580620002b96000396000f3fe6080604052600436106101405760003560e01c80636352211e116100b6578063b88d4fde1161006f578063b88d4fde14610447578063be9af53614610470578063c87b56dd1461048c578063e219fc75146104c9578063e985e9c5146104e5578063f060a4471461052257610140565b80636352211e1461032d57806370a082311461036a57806372b3b620146103a757806395d89b41146103d7578063a22cb46514610402578063ae677aa31461042b57610140565b806312e855851161010857806312e855851461023e57806315c9ae101461026957806323b872dd146102945780633ff7abca146102bd57806342842e0e146102d957806345f8fa801461030257610140565b806301ffc9a71461014557806306fdde0314610182578063081812fc146101ad578063095ea7b3146101ea5780630f08efe014610213575b600080fd5b34801561015157600080fd5b5061016c60048036038101906101679190612cc0565b61054d565b6040516101799190612d08565b60405180910390f35b34801561018e57600080fd5b5061019761062f565b6040516101a49190612dbc565b60405180910390f35b3480156101b957600080fd5b506101d460048036038101906101cf9190612e14565b6106c1565b6040516101e19190612e82565b60405180910390f35b3480156101f657600080fd5b50610211600480360381019061020c9190612ec9565b610746565b005b34801561021f57600080fd5b5061022861085e565b604051610235919061305f565b60405180910390f35b34801561024a57600080fd5b50610253610ac7565b6040516102609190613090565b60405180910390f35b34801561027557600080fd5b5061027e610ad1565b60405161028b919061305f565b60405180910390f35b3480156102a057600080fd5b506102bb60048036038101906102b691906130ab565b610dbf565b005b6102d760048036038101906102d29190612e14565b610e1f565b005b3480156102e557600080fd5b5061030060048036038101906102fb91906130ab565b610eb9565b005b34801561030e57600080fd5b50610317610ed9565b604051610324919061305f565b60405180910390f35b34801561033957600080fd5b50610354600480360381019061034f9190612e14565b6111c7565b6040516103619190612e82565b60405180910390f35b34801561037657600080fd5b50610391600480360381019061038c91906130fe565b611279565b60405161039e9190613090565b60405180910390f35b6103c160048036038101906103bc9190613260565b611331565b6040516103ce9190613090565b60405180910390f35b3480156103e357600080fd5b506103ec611373565b6040516103f99190612dbc565b60405180910390f35b34801561040e57600080fd5b50610429600480360381019061042491906132e8565b611405565b005b61044560048036038101906104409190612e14565b61141b565b005b34801561045357600080fd5b5061046e600480360381019061046991906133c9565b6114b5565b005b61048a60048036038101906104859190612e14565b611517565b005b34801561049857600080fd5b506104b360048036038101906104ae9190612e14565b6117ce565b6040516104c09190612dbc565b60405180910390f35b6104e360048036038101906104de919061344c565b611920565b005b3480156104f157600080fd5b5061050c6004803603810190610507919061348c565b611b15565b6040516105199190612d08565b60405180910390f35b34801561052e57600080fd5b50610537611ba9565b6040516105449190613090565b60405180910390f35b60007f80ac58cd000000000000000000000000000000000000000000000000000000007bffffffffffffffffffffffffffffffffffffffffffffffffffffffff1916827bffffffffffffffffffffffffffffffffffffffffffffffffffffffff1916148061061857507f5b5e139f000000000000000000000000000000000000000000000000000000007bffffffffffffffffffffffffffffffffffffffffffffffffffffffff1916827bffffffffffffffffffffffffffffffffffffffffffffffffffffffff1916145b80610628575061062782611bb3565b5b9050919050565b60606000805461063e906134fb565b80601f016020809104026020016040519081016040528092919081815260200182805461066a906134fb565b80156106b75780601f1061068c576101008083540402835291602001916106b7565b820191906000526020600020905b81548152906001019060200180831161069a57829003601f168201915b5050505050905090565b60006106cc82611c1d565b61070b576040517f08c379a00000000000000000000000000000000000000000000000000000000081526004016107029061359f565b60405180910390fd5b6004600083815260200190815260200160002060009054906101000a900473ffffffffffffffffffffffffffffffffffffffff169050919050565b6000610751826111c7565b90508073ffffffffffffffffffffffffffffffffffffffff168373ffffffffffffffffffffffffffffffffffffffff1614156107c2576040517f08c379a00000000000000000000000000000000000000000000000000000000081526004016107b990613631565b60405180910390fd5b8073ffffffffffffffffffffffffffffffffffffffff166107e1611c89565b73ffffffffffffffffffffffffffffffffffffffff161480610810575061080f8161080a611c89565b611b15565b5b61084f576040517f08c379a0000000000000000000000000000000000000000000000000000000008152600401610846906136c3565b60405180910390fd5b6108598383611c91565b505050565b6060600061086c6007611d4a565b9050600061087a6008611d4a565b6108846007611d4a565b61088e9190613712565b90506000808267ffffffffffffffff8111156108ad576108ac613135565b5b6040519080825280602002602001820160405280156108e657816020015b6108d3612b54565b8152602001906001900390816108cb5790505b50905060005b84811015610abc573073ffffffffffffffffffffffffffffffffffffffff16600d600060018461091c9190613746565b815260200190815260200160002060020160009054906101000a900473ffffffffffffffffffffffffffffffffffffffff1673ffffffffffffffffffffffffffffffffffffffff161415610aa95760006001826109799190613746565b90506000600d60008381526020019081526020016000209050806040518060a0016040529081600082015481526020016001820160009054906101000a900473ffffffffffffffffffffffffffffffffffffffff1673ffffffffffffffffffffffffffffffffffffffff1673ffffffffffffffffffffffffffffffffffffffff1681526020016002820160009054906101000a900473ffffffffffffffffffffffffffffffffffffffff1673ffffffffffffffffffffffffffffffffffffffff1673ffffffffffffffffffffffffffffffffffffffff168152602001600382015481526020016004820160009054906101000a900460ff161515151581525050848681518110610a8c57610a8b61379c565b5b6020026020010181905250600185610aa49190613746565b945050505b8080610ab4906137cb565b9150506108ec565b508094505050505090565b6000600954905090565b60606000610adf6007611d4a565b905060008060005b83811015610b88573373ffffffffffffffffffffffffffffffffffffffff16600d6000600184610b179190613746565b815260200190815260200160002060020160009054906101000a900473ffffffffffffffffffffffffffffffffffffffff1673ffffffffffffffffffffffffffffffffffffffff161415610b7557600183610b729190613746565b92505b8080610b80906137cb565b915050610ae7565b5060008267ffffffffffffffff811115610ba557610ba4613135565b5b604051908082528060200260200182016040528015610bde57816020015b610bcb612b54565b815260200190600190039081610bc35790505b50905060005b84811015610db4573373ffffffffffffffffffffffffffffffffffffffff16600d6000600184610c149190613746565b815260200190815260200160002060020160009054906101000a900473ffffffffffffffffffffffffffffffffffffffff1673ffffffffffffffffffffffffffffffffffffffff161415610da1576000600182610c719190613746565b90506000600d60008381526020019081526020016000209050806040518060a0016040529081600082015481526020016001820160009054906101000a900473ffffffffffffffffffffffffffffffffffffffff1673ffffffffffffffffffffffffffffffffffffffff1673ffffffffffffffffffffffffffffffffffffffff1681526020016002820160009054906101000a900473ffffffffffffffffffffffffffffffffffffffff1673ffffffffffffffffffffffffffffffffffffffff1673ffffffffffffffffffffffffffffffffffffffff168152602001600382015481526020016004820160009054906101000a900460ff161515151581525050848681518110610d8457610d8361379c565b5b6020026020010181905250600185610d9c9190613746565b945050505b8080610dac906137cb565b915050610be4565b508094505050505090565b610dd0610dca611c89565b82611d58565b610e0f576040517f08c379a0000000000000000000000000000000000000000000000000000000008152600401610e0690613886565b60405180910390fd5b610e1a838383611e36565b505050565b3373ffffffffffffffffffffffffffffffffffffffff16600c60009054906101000a900473ffffffffffffffffffffffffffffffffffffffff1673ffffffffffffffffffffffffffffffffffffffff1614610eaf576040517f08c379a0000000000000000000000000000000000000000000000000000000008152600401610ea690613918565b60405180910390fd5b80600a8190555050565b610ed4838383604051806020016040528060008152506114b5565b505050565b60606000610ee76007611d4a565b905060008060005b83811015610f90573373ffffffffffffffffffffffffffffffffffffffff16600d6000600184610f1f9190613746565b815260200190815260200160002060010160009054906101000a900473ffffffffffffffffffffffffffffffffffffffff1673ffffffffffffffffffffffffffffffffffffffff161415610f7d57600183610f7a9190613746565b92505b8080610f88906137cb565b915050610eef565b5060008267ffffffffffffffff811115610fad57610fac613135565b5b604051908082528060200260200182016040528015610fe657816020015b610fd3612b54565b815260200190600190039081610fcb5790505b50905060005b848110156111bc573373ffffffffffffffffffffffffffffffffffffffff16600d600060018461101c9190613746565b815260200190815260200160002060010160009054906101000a900473ffffffffffffffffffffffffffffffffffffffff1673ffffffffffffffffffffffffffffffffffffffff1614156111a95760006001826110799190613746565b90506000600d60008381526020019081526020016000209050806040518060a0016040529081600082015481526020016001820160009054906101000a900473ffffffffffffffffffffffffffffffffffffffff1673ffffffffffffffffffffffffffffffffffffffff1673ffffffffffffffffffffffffffffffffffffffff1681526020016002820160009054906101000a900473ffffffffffffffffffffffffffffffffffffffff1673ffffffffffffffffffffffffffffffffffffffff1673ffffffffffffffffffffffffffffffffffffffff168152602001600382015481526020016004820160009054906101000a900460ff16151515158152505084868151811061118c5761118b61379c565b5b60200260200101819052506001856111a49190613746565b945050505b80806111b4906137cb565b915050610fec565b508094505050505090565b6000806002600084815260200190815260200160002060009054906101000a900473ffffffffffffffffffffffffffffffffffffffff169050600073ffffffffffffffffffffffffffffffffffffffff168173ffffffffffffffffffffffffffffffffffffffff161415611270576040517f08c379a0000000000000000000000000000000000000000000000000000000008152600401611267906139aa565b60405180910390fd5b80915050919050565b60008073ffffffffffffffffffffffffffffffffffffffff168273ffffffffffffffffffffffffffffffffffffffff1614156112ea576040517f08c379a00000000000000000000000000000000000000000000000000000000081526004016112e190613a3c565b60405180910390fd5b600360008373ffffffffffffffffffffffffffffffffffffffff1673ffffffffffffffffffffffffffffffffffffffff168152602001908152602001600020549050919050565b600061133d600761209d565b60006113496007611d4a565b905061135533826120b3565b61135f818561228d565b6113698184612301565b8091505092915050565b606060018054611382906134fb565b80601f01602080910402602001604051908101604052809291908181526020018280546113ae906134fb565b80156113fb5780601f106113d0576101008083540402835291602001916113fb565b820191906000526020600020905b8154815290600101906020018083116113de57829003601f168201915b5050505050905090565b611417611410611c89565b8383612504565b5050565b3373ffffffffffffffffffffffffffffffffffffffff16600c60009054906101000a900473ffffffffffffffffffffffffffffffffffffffff1673ffffffffffffffffffffffffffffffffffffffff16146114ab576040517f08c379a00000000000000000000000000000000000000000000000000000000081526004016114a290613918565b60405180910390fd5b8060098190555050565b6114c66114c0611c89565b83611d58565b611505576040517f08c379a00000000000000000000000000000000000000000000000000000000081526004016114fc90613886565b60405180910390fd5b61151184848484612671565b50505050565b6000600d60008381526020019081526020016000206003015490506000600d600084815260200190815260200160002060010160009054906101000a900473ffffffffffffffffffffffffffffffffffffffff1690508134146115af576040517f08c379a00000000000000000000000000000000000000000000000000000000081526004016115a690613ace565b60405180910390fd5b33600d600085815260200190815260200160002060020160006101000a81548173ffffffffffffffffffffffffffffffffffffffff021916908373ffffffffffffffffffffffffffffffffffffffff1602179055506001600d600085815260200190815260200160002060040160006101000a81548160ff0219169083151502179055506000600d600085815260200190815260200160002060010160006101000a81548173ffffffffffffffffffffffffffffffffffffffff021916908373ffffffffffffffffffffffffffffffffffffffff160217905550611693600861209d565b61169e303385611e36565b600c60009054906101000a900473ffffffffffffffffffffffffffffffffffffffff1673ffffffffffffffffffffffffffffffffffffffff166108fc6009549081150290604051600060405180830381858888f19350505050158015611708573d6000803e3d6000fd5b50600c60009054906101000a900473ffffffffffffffffffffffffffffffffffffffff1673ffffffffffffffffffffffffffffffffffffffff166108fc61174e346126cd565b9081150290604051600060405180830381858888f19350505050158015611779573d6000803e3d6000fd5b508073ffffffffffffffffffffffffffffffffffffffff166108fc61179d346126f1565b9081150290604051600060405180830381858888f193505050501580156117c8573d6000803e3d6000fd5b50505050565b60606117d982611c1d565b611818576040517f08c379a000000000000000000000000000000000000000000000000000000000815260040161180f90613b60565b60405180910390fd5b6000600660008481526020019081526020016000208054611838906134fb565b80601f0160208091040260200160405190810160405280929190818152602001828054611864906134fb565b80156118b15780601f10611886576101008083540402835291602001916118b1565b820191906000526020600020905b81548152906001019060200180831161189457829003601f168201915b5050505050905060006118c2612715565b90506000815114156118d857819250505061191b565b60008251111561190d5780826040516020016118f5929190613bbc565b6040516020818303038152906040529250505061191b565b6119168461272c565b925050505b919050565b3373ffffffffffffffffffffffffffffffffffffffff16600d600084815260200190815260200160002060020160009054906101000a900473ffffffffffffffffffffffffffffffffffffffff1673ffffffffffffffffffffffffffffffffffffffff16146119c4576040517f08c379a00000000000000000000000000000000000000000000000000000000081526004016119bb90613c52565b60405180910390fd5b6009543414611a08576040517f08c379a00000000000000000000000000000000000000000000000000000000081526004016119ff90613ce4565b60405180910390fd5b6000600d600084815260200190815260200160002060040160006101000a81548160ff02191690831515021790555080600d60008481526020019081526020016000206003018190555033600d600084815260200190815260200160002060010160006101000a81548173ffffffffffffffffffffffffffffffffffffffff021916908373ffffffffffffffffffffffffffffffffffffffff16021790555030600d600084815260200190815260200160002060020160006101000a81548173ffffffffffffffffffffffffffffffffffffffff021916908373ffffffffffffffffffffffffffffffffffffffff160217905550611b0660086127d3565b611b11333084611e36565b5050565b6000600560008473ffffffffffffffffffffffffffffffffffffffff1673ffffffffffffffffffffffffffffffffffffffff16815260200190815260200160002060008373ffffffffffffffffffffffffffffffffffffffff1673ffffffffffffffffffffffffffffffffffffffff16815260200190815260200160002060009054906101000a900460ff16905092915050565b6000600a54905090565b60007f01ffc9a7000000000000000000000000000000000000000000000000000000007bffffffffffffffffffffffffffffffffffffffffffffffffffffffff1916827bffffffffffffffffffffffffffffffffffffffffffffffffffffffff1916149050919050565b60008073ffffffffffffffffffffffffffffffffffffffff166002600084815260200190815260200160002060009054906101000a900473ffffffffffffffffffffffffffffffffffffffff1673ffffffffffffffffffffffffffffffffffffffff1614159050919050565b600033905090565b816004600083815260200190815260200160002060006101000a81548173ffffffffffffffffffffffffffffffffffffffff021916908373ffffffffffffffffffffffffffffffffffffffff160217905550808273ffffffffffffffffffffffffffffffffffffffff16611d04836111c7565b73ffffffffffffffffffffffffffffffffffffffff167f8c5be1e5ebec7d5bd14f71427d1e84f3dd0314c0f7b2291e5b200ac8c7c3b92560405160405180910390a45050565b600081600001549050919050565b6000611d6382611c1d565b611da2576040517f08c379a0000000000000000000000000000000000000000000000000000000008152600401611d9990613d76565b60405180910390fd5b6000611dad836111c7565b90508073ffffffffffffffffffffffffffffffffffffffff168473ffffffffffffffffffffffffffffffffffffffff161480611e1c57508373ffffffffffffffffffffffffffffffffffffffff16611e04846106c1565b73ffffffffffffffffffffffffffffffffffffffff16145b80611e2d5750611e2c8185611b15565b5b91505092915050565b8273ffffffffffffffffffffffffffffffffffffffff16611e56826111c7565b73ffffffffffffffffffffffffffffffffffffffff1614611eac576040517f08c379a0000000000000000000000000000000000000000000000000000000008152600401611ea390613e08565b60405180910390fd5b600073ffffffffffffffffffffffffffffffffffffffff168273ffffffffffffffffffffffffffffffffffffffff161415611f1c576040517f08c379a0000000000000000000000000000000000000000000000000000000008152600401611f1390613e9a565b60405180910390fd5b611f2783838361282f565b611f32600082611c91565b6001600360008573ffffffffffffffffffffffffffffffffffffffff1673ffffffffffffffffffffffffffffffffffffffff1681526020019081526020016000206000828254611f829190613712565b925050819055506001600360008473ffffffffffffffffffffffffffffffffffffffff1673ffffffffffffffffffffffffffffffffffffffff1681526020019081526020016000206000828254611fd99190613746565b92505081905550816002600083815260200190815260200160002060006101000a81548173ffffffffffffffffffffffffffffffffffffffff021916908373ffffffffffffffffffffffffffffffffffffffff160217905550808273ffffffffffffffffffffffffffffffffffffffff168473ffffffffffffffffffffffffffffffffffffffff167fddf252ad1be2c89b69c2b068fc378daa952ba7f163c4a11628f55a4df523b3ef60405160405180910390a4612098838383612834565b505050565b6001816000016000828254019250508190555050565b600073ffffffffffffffffffffffffffffffffffffffff168273ffffffffffffffffffffffffffffffffffffffff161415612123576040517f08c379a000000000000000000000000000000000000000000000000000000000815260040161211a90613f06565b60405180910390fd5b61212c81611c1d565b1561216c576040517f08c379a000000000000000000000000000000000000000000000000000000000815260040161216390613f72565b60405180910390fd5b6121786000838361282f565b6001600360008473ffffffffffffffffffffffffffffffffffffffff1673ffffffffffffffffffffffffffffffffffffffff16815260200190815260200160002060008282546121c89190613746565b92505081905550816002600083815260200190815260200160002060006101000a81548173ffffffffffffffffffffffffffffffffffffffff021916908373ffffffffffffffffffffffffffffffffffffffff160217905550808273ffffffffffffffffffffffffffffffffffffffff16600073ffffffffffffffffffffffffffffffffffffffff167fddf252ad1be2c89b69c2b068fc378daa952ba7f163c4a11628f55a4df523b3ef60405160405180910390a461228960008383612834565b5050565b61229682611c1d565b6122d5576040517f08c379a00000000000000000000000000000000000000000000000000000000081526004016122cc90614004565b60405180910390fd5b806006600084815260200190815260200160002090805190602001906122fc929190612bb1565b505050565b60008111612344576040517f08c379a000000000000000000000000000000000000000000000000000000000815260040161233b90614070565b60405180910390fd5b6009543414612388576040517f08c379a000000000000000000000000000000000000000000000000000000000815260040161237f90613ce4565b60405180910390fd5b6040518060a001604052808381526020013373ffffffffffffffffffffffffffffffffffffffff1681526020013073ffffffffffffffffffffffffffffffffffffffff16815260200182815260200160001515815250600d60008481526020019081526020016000206000820151816000015560208201518160010160006101000a81548173ffffffffffffffffffffffffffffffffffffffff021916908373ffffffffffffffffffffffffffffffffffffffff16021790555060408201518160020160006101000a81548173ffffffffffffffffffffffffffffffffffffffff021916908373ffffffffffffffffffffffffffffffffffffffff1602179055506060820151816003015560808201518160040160006101000a81548160ff0219169083151502179055509050506124c1333084611e36565b817fb640004f1d14576d0c209e240cad0410e0d8c0c33a09375861fbadae2588a98d33308460006040516124f89493929190614090565b60405180910390a25050565b8173ffffffffffffffffffffffffffffffffffffffff168373ffffffffffffffffffffffffffffffffffffffff161415612573576040517f08c379a000000000000000000000000000000000000000000000000000000000815260040161256a90614121565b60405180910390fd5b80600560008573ffffffffffffffffffffffffffffffffffffffff1673ffffffffffffffffffffffffffffffffffffffff16815260200190815260200160002060008473ffffffffffffffffffffffffffffffffffffffff1673ffffffffffffffffffffffffffffffffffffffff16815260200190815260200160002060006101000a81548160ff0219169083151502179055508173ffffffffffffffffffffffffffffffffffffffff168373ffffffffffffffffffffffffffffffffffffffff167f17307eab39ab6107e8899845ad3d59bd9653f200f220920489ca2b5937696c31836040516126649190612d08565b60405180910390a3505050565b61267c848484611e36565b61268884848484612839565b6126c7576040517f08c379a00000000000000000000000000000000000000000000000000000000081526004016126be906141b3565b60405180910390fd5b50505050565b6000600a546103e8836126e09190614202565b6126ea9190614233565b9050919050565b6000600b546103e8836127049190614202565b61270e9190614233565b9050919050565b606060405180602001604052806000815250905090565b606061273782611c1d565b612776576040517f08c379a000000000000000000000000000000000000000000000000000000000815260040161276d906142ff565b60405180910390fd5b6000612780612715565b905060008151116127a057604051806020016040528060008152506127cb565b806127aa846129d0565b6040516020016127bb929190613bbc565b6040516020818303038152906040525b915050919050565b6000816000015490506000811161281f576040517f08c379a00000000000000000000000000000000000000000000000000000000081526004016128169061436b565b60405180910390fd5b6001810382600001819055505050565b505050565b505050565b600061285a8473ffffffffffffffffffffffffffffffffffffffff16612b31565b156129c3578373ffffffffffffffffffffffffffffffffffffffff1663150b7a02612883611c89565b8786866040518563ffffffff1660e01b81526004016128a594939291906143e0565b602060405180830381600087803b1580156128bf57600080fd5b505af19250505080156128f057506040513d601f19601f820116820180604052508101906128ed9190614441565b60015b612973573d8060008114612920576040519150601f19603f3d011682016040523d82523d6000602084013e612925565b606091505b5060008151141561296b576040517f08c379a0000000000000000000000000000000000000000000000000000000008152600401612962906141b3565b60405180910390fd5b805181602001fd5b63150b7a0260e01b7bffffffffffffffffffffffffffffffffffffffffffffffffffffffff1916817bffffffffffffffffffffffffffffffffffffffffffffffffffffffff1916149150506129c8565b600190505b949350505050565b60606000821415612a18576040518060400160405280600181526020017f30000000000000000000000000000000000000000000000000000000000000008152509050612b2c565b600082905060005b60008214612a4a578080612a33906137cb565b915050600a82612a439190614202565b9150612a20565b60008167ffffffffffffffff811115612a6657612a65613135565b5b6040519080825280601f01601f191660200182016040528015612a985781602001600182028036833780820191505090505b5090505b60008514612b2557600182612ab19190613712565b9150600a85612ac0919061446e565b6030612acc9190613746565b60f81b818381518110612ae257612ae161379c565b5b60200101907effffffffffffffffffffffffffffffffffffffffffffffffffffffffffffff1916908160001a905350600a85612b1e9190614202565b9450612a9c565b8093505050505b919050565b6000808273ffffffffffffffffffffffffffffffffffffffff163b119050919050565b6040518060a0016040528060008152602001600073ffffffffffffffffffffffffffffffffffffffff168152602001600073ffffffffffffffffffffffffffffffffffffffff168152602001600081526020016000151581525090565b828054612bbd906134fb565b90600052602060002090601f016020900481019282612bdf5760008555612c26565b82601f10612bf857805160ff1916838001178555612c26565b82800160010185558215612c26579182015b82811115612c25578251825591602001919060010190612c0a565b5b509050612c339190612c37565b5090565b5b80821115612c50576000816000905550600101612c38565b5090565b6000604051905090565b600080fd5b600080fd5b60007fffffffff0000000000000000000000000000000000000000000000000000000082169050919050565b612c9d81612c68565b8114612ca857600080fd5b50565b600081359050612cba81612c94565b92915050565b600060208284031215612cd657612cd5612c5e565b5b6000612ce484828501612cab565b91505092915050565b60008115159050919050565b612d0281612ced565b82525050565b6000602082019050612d1d6000830184612cf9565b92915050565b600081519050919050565b600082825260208201905092915050565b60005b83811015612d5d578082015181840152602081019050612d42565b83811115612d6c576000848401525b50505050565b6000601f19601f8301169050919050565b6000612d8e82612d23565b612d988185612d2e565b9350612da8818560208601612d3f565b612db181612d72565b840191505092915050565b60006020820190508181036000830152612dd68184612d83565b905092915050565b6000819050919050565b612df181612dde565b8114612dfc57600080fd5b50565b600081359050612e0e81612de8565b92915050565b600060208284031215612e2a57612e29612c5e565b5b6000612e3884828501612dff565b91505092915050565b600073ffffffffffffffffffffffffffffffffffffffff82169050919050565b6000612e6c82612e41565b9050919050565b612e7c81612e61565b82525050565b6000602082019050612e976000830184612e73565b92915050565b612ea681612e61565b8114612eb157600080fd5b50565b600081359050612ec381612e9d565b92915050565b60008060408385031215612ee057612edf612c5e565b5b6000612eee85828601612eb4565b9250506020612eff85828601612dff565b9150509250929050565b600081519050919050565b600082825260208201905092915050565b6000819050602082019050919050565b612f3e81612dde565b82525050565b6000612f4f82612e41565b9050919050565b612f5f81612f44565b82525050565b612f6e81612ced565b82525050565b60a082016000820151612f8a6000850182612f35565b506020820151612f9d6020850182612f56565b506040820151612fb06040850182612f56565b506060820151612fc36060850182612f35565b506080820151612fd66080850182612f65565b50505050565b6000612fe88383612f74565b60a08301905092915050565b6000602082019050919050565b600061300c82612f09565b6130168185612f14565b935061302183612f25565b8060005b838110156130525781516130398882612fdc565b975061304483612ff4565b925050600181019050613025565b5085935050505092915050565b600060208201905081810360008301526130798184613001565b905092915050565b61308a81612dde565b82525050565b60006020820190506130a56000830184613081565b92915050565b6000806000606084860312156130c4576130c3612c5e565b5b60006130d286828701612eb4565b93505060206130e386828701612eb4565b92505060406130f486828701612dff565b9150509250925092565b60006020828403121561311457613113612c5e565b5b600061312284828501612eb4565b91505092915050565b600080fd5b600080fd5b7f4e487b7100000000000000000000000000000000000000000000000000000000600052604160045260246000fd5b61316d82612d72565b810181811067ffffffffffffffff8211171561318c5761318b613135565b5b80604052505050565b600061319f612c54565b90506131ab8282613164565b919050565b600067ffffffffffffffff8211156131cb576131ca613135565b5b6131d482612d72565b9050602081019050919050565b82818337600083830152505050565b60006132036131fe846131b0565b613195565b90508281526020810184848401111561321f5761321e613130565b5b61322a8482856131e1565b509392505050565b600082601f8301126132475761324661312b565b5b81356132578482602086016131f0565b91505092915050565b6000806040838503121561327757613276612c5e565b5b600083013567ffffffffffffffff81111561329557613294612c63565b5b6132a185828601613232565b92505060206132b285828601612dff565b9150509250929050565b6132c581612ced565b81146132d057600080fd5b50565b6000813590506132e2816132bc565b92915050565b600080604083850312156132ff576132fe612c5e565b5b600061330d85828601612eb4565b925050602061331e858286016132d3565b9150509250929050565b600067ffffffffffffffff82111561334357613342613135565b5b61334c82612d72565b9050602081019050919050565b600061336c61336784613328565b613195565b90508281526020810184848401111561338857613387613130565b5b6133938482856131e1565b509392505050565b600082601f8301126133b0576133af61312b565b5b81356133c0848260208601613359565b91505092915050565b600080600080608085870312156133e3576133e2612c5e565b5b60006133f187828801612eb4565b945050602061340287828801612eb4565b935050604061341387828801612dff565b925050606085013567ffffffffffffffff81111561343457613433612c63565b5b6134408782880161339b565b91505092959194509250565b6000806040838503121561346357613462612c5e565b5b600061347185828601612dff565b925050602061348285828601612dff565b9150509250929050565b600080604083850312156134a3576134a2612c5e565b5b60006134b185828601612eb4565b92505060206134c285828601612eb4565b9150509250929050565b7f4e487b7100000000000000000000000000000000000000000000000000000000600052602260045260246000fd5b6000600282049050600182168061351357607f821691505b60208210811415613527576135266134cc565b5b50919050565b7f4552433732313a20617070726f76656420717565727920666f72206e6f6e657860008201527f697374656e7420746f6b656e0000000000000000000000000000000000000000602082015250565b6000613589602c83612d2e565b91506135948261352d565b604082019050919050565b600060208201905081810360008301526135b88161357c565b9050919050565b7f4552433732313a20617070726f76616c20746f2063757272656e74206f776e6560008201527f7200000000000000000000000000000000000000000000000000000000000000602082015250565b600061361b602183612d2e565b9150613626826135bf565b604082019050919050565b6000602082019050818103600083015261364a8161360e565b9050919050565b7f4552433732313a20617070726f76652063616c6c6572206973206e6f74206f7760008201527f6e6572206e6f7220617070726f76656420666f7220616c6c0000000000000000602082015250565b60006136ad603883612d2e565b91506136b882613651565b604082019050919050565b600060208201905081810360008301526136dc816136a0565b9050919050565b7f4e487b7100000000000000000000000000000000000000000000000000000000600052601160045260246000fd5b600061371d82612dde565b915061372883612dde565b92508282101561373b5761373a6136e3565b5b828203905092915050565b600061375182612dde565b915061375c83612dde565b9250827fffffffffffffffffffffffffffffffffffffffffffffffffffffffffffffffff03821115613791576137906136e3565b5b828201905092915050565b7f4e487b7100000000000000000000000000000000000000000000000000000000600052603260045260246000fd5b60006137d682612dde565b91507fffffffffffffffffffffffffffffffffffffffffffffffffffffffffffffffff821415613809576138086136e3565b5b600182019050919050565b7f4552433732313a207472616e736665722063616c6c6572206973206e6f74206f60008201527f776e6572206e6f7220617070726f766564000000000000000000000000000000602082015250565b6000613870603183612d2e565b915061387b82613814565b604082019050919050565b6000602082019050818103600083015261389f81613863565b9050919050565b7f4f6e6c79206d61726b6574706c616365206f776e65722063616e20757064617460008201527f6520746865206c697374696e6720707269636500000000000000000000000000602082015250565b6000613902603383612d2e565b915061390d826138a6565b604082019050919050565b60006020820190508181036000830152613931816138f5565b9050919050565b7f4552433732313a206f776e657220717565727920666f72206e6f6e657869737460008201527f656e7420746f6b656e0000000000000000000000000000000000000000000000602082015250565b6000613994602983612d2e565b915061399f82613938565b604082019050919050565b600060208201905081810360008301526139c381613987565b9050919050565b7f4552433732313a2062616c616e636520717565727920666f7220746865207a6560008201527f726f206164647265737300000000000000000000000000000000000000000000602082015250565b6000613a26602a83612d2e565b9150613a31826139ca565b604082019050919050565b60006020820190508181036000830152613a5581613a19565b9050919050565b7f506c65617365207375626d6974207468652061736b696e67207072696365207460008201527f6f20636f6d706c65746520746865207075726368617365000000000000000000602082015250565b6000613ab8603783612d2e565b9150613ac382613a5c565b604082019050919050565b60006020820190508181036000830152613ae781613aab565b9050919050565b7f45524337323155524953746f726167653a2055524920717565727920666f722060008201527f6e6f6e6578697374656e7420746f6b656e000000000000000000000000000000602082015250565b6000613b4a603183612d2e565b9150613b5582613aee565b604082019050919050565b60006020820190508181036000830152613b7981613b3d565b9050919050565b600081905092915050565b6000613b9682612d23565b613ba08185613b80565b9350613bb0818560208601612d3f565b80840191505092915050565b6000613bc88285613b8b565b9150613bd48284613b8b565b91508190509392505050565b7f4f6e6c79204974656d204f776e65722063616e20706572666f726d207468697360008201527f206f7065726174696f6e00000000000000000000000000000000000000000000602082015250565b6000613c3c602a83612d2e565b9150613c4782613be0565b604082019050919050565b60006020820190508181036000830152613c6b81613c2f565b9050919050565b7f5072696365206d75737420626520657175616c20746f206c697374696e67207060008201527f7269636500000000000000000000000000000000000000000000000000000000602082015250565b6000613cce602483612d2e565b9150613cd982613c72565b604082019050919050565b60006020820190508181036000830152613cfd81613cc1565b9050919050565b7f4552433732313a206f70657261746f7220717565727920666f72206e6f6e657860008201527f697374656e7420746f6b656e0000000000000000000000000000000000000000602082015250565b6000613d60602c83612d2e565b9150613d6b82613d04565b604082019050919050565b60006020820190508181036000830152613d8f81613d53565b9050919050565b7f4552433732313a207472616e736665722066726f6d20696e636f72726563742060008201527f6f776e6572000000000000000000000000000000000000000000000000000000602082015250565b6000613df2602583612d2e565b9150613dfd82613d96565b604082019050919050565b60006020820190508181036000830152613e2181613de5565b9050919050565b7f4552433732313a207472616e7366657220746f20746865207a65726f2061646460008201527f7265737300000000000000000000000000000000000000000000000000000000602082015250565b6000613e84602483612d2e565b9150613e8f82613e28565b604082019050919050565b60006020820190508181036000830152613eb381613e77565b9050919050565b7f4552433732313a206d696e7420746f20746865207a65726f2061646472657373600082015250565b6000613ef0602083612d2e565b9150613efb82613eba565b602082019050919050565b60006020820190508181036000830152613f1f81613ee3565b9050919050565b7f4552433732313a20746f6b656e20616c7265616479206d696e74656400000000600082015250565b6000613f5c601c83612d2e565b9150613f6782613f26565b602082019050919050565b60006020820190508181036000830152613f8b81613f4f565b9050919050565b7f45524337323155524953746f726167653a2055524920736574206f66206e6f6e60008201527f6578697374656e7420746f6b656e000000000000000000000000000000000000602082015250565b6000613fee602e83612d2e565b9150613ff982613f92565b604082019050919050565b6000602082019050818103600083015261401d81613fe1565b9050919050565b7f5072696365206d757374206265206174206c6561737420310000000000000000600082015250565b600061405a601883612d2e565b915061406582614024565b602082019050919050565b600060208201905081810360008301526140898161404d565b9050919050565b60006080820190506140a56000830187612e73565b6140b26020830186612e73565b6140bf6040830185613081565b6140cc6060830184612cf9565b95945050505050565b7f4552433732313a20617070726f766520746f2063616c6c657200000000000000600082015250565b600061410b601983612d2e565b9150614116826140d5565b602082019050919050565b6000602082019050818103600083015261413a816140fe565b9050919050565b7f4552433732313a207472616e7366657220746f206e6f6e20455243373231526560008201527f63656976657220696d706c656d656e7465720000000000000000000000000000602082015250565b600061419d603283612d2e565b91506141a882614141565b604082019050919050565b600060208201905081810360008301526141cc81614190565b9050919050565b7f4e487b7100000000000000000000000000000000000000000000000000000000600052601260045260246000fd5b600061420d82612dde565b915061421883612dde565b925082614228576142276141d3565b5b828204905092915050565b600061423e82612dde565b915061424983612dde565b9250817fffffffffffffffffffffffffffffffffffffffffffffffffffffffffffffffff0483118215151615614282576142816136e3565b5b828202905092915050565b7f4552433732314d657461646174613a2055524920717565727920666f72206e6f60008201527f6e6578697374656e7420746f6b656e0000000000000000000000000000000000602082015250565b60006142e9602f83612d2e565b91506142f48261428d565b604082019050919050565b60006020820190508181036000830152614318816142dc565b9050919050565b7f436f756e7465723a2064656372656d656e74206f766572666c6f770000000000600082015250565b6000614355601b83612d2e565b91506143608261431f565b602082019050919050565b6000602082019050818103600083015261438481614348565b9050919050565b600081519050919050565b600082825260208201905092915050565b60006143b28261438b565b6143bc8185614396565b93506143cc818560208601612d3f565b6143d581612d72565b840191505092915050565b60006080820190506143f56000830187612e73565b6144026020830186612e73565b61440f6040830185613081565b818103606083015261442181846143a7565b905095945050505050565b60008151905061443b81612c94565b92915050565b60006020828403121561445757614456612c5e565b5b60006144658482850161442c565b91505092915050565b600061447982612dde565b915061448483612dde565b925082614494576144936141d3565b5b82820690509291505056fea2646970667358221220685beb5c1985f0d7c194f8a3001abf672175f3d513d20ef8476b26242e54fda764736f6c63430008090033",
  "linkReferences": {},
  "deployedLinkReferences": {}
}