{
  "_format": "hh-sol-artifact-1",
  "contractName": "NFTMarketplace",
  "sourceName": "contracts/NFTMarketplace.sol",
  "abi": [
    {
      "inputs": [],
      "stateMutability": "nonpayable",
      "type": "constructor"
    },
    {
      "anonymous": false,
      "inputs": [
        {
          "indexed": true,
          "internalType": "address",
          "name": "owner",
          "type": "address"
        },
        {
          "indexed": true,
          "internalType": "address",
          "name": "approved",
          "type": "address"
        },
        {
          "indexed": true,
          "internalType": "uint256",
          "name": "tokenId",
          "type": "uint256"
        }
      ],
      "name": "Approval",
      "type": "event"
    },
    {
      "anonymous": false,
      "inputs": [
        {
          "indexed": true,
          "internalType": "address",
          "name": "owner",
          "type": "address"
        },
        {
          "indexed": true,
          "internalType": "address",
          "name": "operator",
          "type": "address"
        },
        {
          "indexed": false,
          "internalType": "bool",
          "name": "approved",
          "type": "bool"
        }
      ],
      "name": "ApprovalForAll",
      "type": "event"
    },
    {
      "anonymous": false,
      "inputs": [
        {
          "indexed": true,
          "internalType": "uint256",
          "name": "tokenId",
          "type": "uint256"
        },
        {
          "indexed": false,
          "internalType": "address",
          "name": "seller",
          "type": "address"
        },
        {
          "indexed": false,
          "internalType": "address",
          "name": "owner",
          "type": "address"
        },
        {
          "indexed": false,
          "internalType": "uint256",
          "name": "price",
          "type": "uint256"
        },
        {
          "indexed": false,
          "internalType": "bool",
          "name": "sold",
          "type": "bool"
        }
      ],
      "name": "MarketItemCreated",
      "type": "event"
    },
    {
      "anonymous": false,
      "inputs": [
        {
          "indexed": true,
          "internalType": "address",
          "name": "from",
          "type": "address"
        },
        {
          "indexed": true,
          "internalType": "address",
          "name": "to",
          "type": "address"
        },
        {
          "indexed": true,
          "internalType": "uint256",
          "name": "tokenId",
          "type": "uint256"
        }
      ],
      "name": "Transfer",
      "type": "event"
    },
    {
      "inputs": [
        {
          "internalType": "address",
          "name": "to",
          "type": "address"
        },
        {
          "internalType": "uint256",
          "name": "tokenId",
          "type": "uint256"
        }
      ],
      "name": "approve",
      "outputs": [],
      "stateMutability": "nonpayable",
      "type": "function"
    },
    {
      "inputs": [
        {
          "internalType": "address",
          "name": "owner",
          "type": "address"
        }
      ],
      "name": "balanceOf",
      "outputs": [
        {
          "internalType": "uint256",
          "name": "",
          "type": "uint256"
        }
      ],
      "stateMutability": "view",
      "type": "function"
    },
    {
      "inputs": [
        {
          "internalType": "uint256",
          "name": "tokenId",
          "type": "uint256"
        }
      ],
      "name": "createMarketItem",
      "outputs": [],
      "stateMutability": "payable",
      "type": "function"
    },
    {
      "inputs": [
        {
          "internalType": "uint256",
          "name": "tokenId",
          "type": "uint256"
        }
      ],
      "name": "createMarketSale",
      "outputs": [],
      "stateMutability": "payable",
      "type": "function"
    },
    {
      "inputs": [
        {
          "internalType": "string",
          "name": "tokenURI",
          "type": "string"
        },
        {
          "internalType": "uint256",
          "name": "price",
          "type": "uint256"
        }
      ],
      "name": "createToken",
      "outputs": [
        {
          "internalType": "uint256",
          "name": "",
          "type": "uint256"
        }
      ],
      "stateMutability": "payable",
      "type": "function"
    },
    {
      "inputs": [],
      "name": "fetchItemsListed",
      "outputs": [
        {
          "components": [
            {
              "internalType": "uint256",
              "name": "tokenId",
              "type": "uint256"
            },
            {
              "internalType": "address payable",
              "name": "seller",
              "type": "address"
            },
            {
              "internalType": "address payable",
              "name": "owner",
              "type": "address"
            },
            {
              "internalType": "uint256",
              "name": "price",
              "type": "uint256"
            },
            {
              "internalType": "bool",
              "name": "sold",
              "type": "bool"
            }
          ],
          "internalType": "struct NFTMarketplace.MarketItem[]",
          "name": "",
          "type": "tuple[]"
        }
      ],
      "stateMutability": "view",
      "type": "function"
    },
    {
      "inputs": [],
      "name": "fetchMarketItems",
      "outputs": [
        {
          "components": [
            {
              "internalType": "uint256",
              "name": "tokenId",
              "type": "uint256"
            },
            {
              "internalType": "address payable",
              "name": "seller",
              "type": "address"
            },
            {
              "internalType": "address payable",
              "name": "owner",
              "type": "address"
            },
            {
              "internalType": "uint256",
              "name": "price",
              "type": "uint256"
            },
            {
              "internalType": "bool",
              "name": "sold",
              "type": "bool"
            }
          ],
          "internalType": "struct NFTMarketplace.MarketItem[]",
          "name": "",
          "type": "tuple[]"
        }
      ],
      "stateMutability": "view",
      "type": "function"
    },
    {
      "inputs": [],
      "name": "fetchMyNFTs",
      "outputs": [
        {
          "components": [
            {
              "internalType": "uint256",
              "name": "tokenId",
              "type": "uint256"
            },
            {
              "internalType": "address payable",
              "name": "seller",
              "type": "address"
            },
            {
              "internalType": "address payable",
              "name": "owner",
              "type": "address"
            },
            {
              "internalType": "uint256",
              "name": "price",
              "type": "uint256"
            },
            {
              "internalType": "bool",
              "name": "sold",
              "type": "bool"
            }
          ],
          "internalType": "struct NFTMarketplace.MarketItem[]",
          "name": "",
          "type": "tuple[]"
        }
      ],
      "stateMutability": "view",
      "type": "function"
    },
    {
      "inputs": [
        {
          "internalType": "uint256",
          "name": "tokenId",
          "type": "uint256"
        }
      ],
      "name": "getApproved",
      "outputs": [
        {
          "internalType": "address",
          "name": "",
          "type": "address"
        }
      ],
      "stateMutability": "view",
      "type": "function"
    },
    {
      "inputs": [],
      "name": "getListingPrice",
      "outputs": [
        {
          "internalType": "uint256",
          "name": "",
          "type": "uint256"
        }
      ],
      "stateMutability": "view",
      "type": "function"
    },
    {
      "inputs": [
        {
          "internalType": "address",
          "name": "owner",
          "type": "address"
        },
        {
          "internalType": "address",
          "name": "operator",
          "type": "address"
        }
      ],
      "name": "isApprovedForAll",
      "outputs": [
        {
          "internalType": "bool",
          "name": "",
          "type": "bool"
        }
      ],
      "stateMutability": "view",
      "type": "function"
    },
    {
      "inputs": [],
      "name": "name",
      "outputs": [
        {
          "internalType": "string",
          "name": "",
          "type": "string"
        }
      ],
      "stateMutability": "view",
      "type": "function"
    },
    {
      "inputs": [
        {
          "internalType": "uint256",
          "name": "tokenId",
          "type": "uint256"
        }
      ],
      "name": "ownerOf",
      "outputs": [
        {
          "internalType": "address",
          "name": "",
          "type": "address"
        }
      ],
      "stateMutability": "view",
      "type": "function"
    },
    {
      "inputs": [
        {
          "internalType": "uint256",
          "name": "tokenId",
          "type": "uint256"
        },
        {
          "internalType": "uint256",
          "name": "price",
          "type": "uint256"
        }
      ],
      "name": "resellToken",
      "outputs": [],
      "stateMutability": "payable",
      "type": "function"
    },
    {
      "inputs": [
        {
          "internalType": "address",
          "name": "from",
          "type": "address"
        },
        {
          "internalType": "address",
          "name": "to",
          "type": "address"
        },
        {
          "internalType": "uint256",
          "name": "tokenId",
          "type": "uint256"
        }
      ],
      "name": "safeTransferFrom",
      "outputs": [],
      "stateMutability": "nonpayable",
      "type": "function"
    },
    {
      "inputs": [
        {
          "internalType": "address",
          "name": "from",
          "type": "address"
        },
        {
          "internalType": "address",
          "name": "to",
          "type": "address"
        },
        {
          "internalType": "uint256",
          "name": "tokenId",
          "type": "uint256"
        },
        {
          "internalType": "bytes",
          "name": "_data",
          "type": "bytes"
        }
      ],
      "name": "safeTransferFrom",
      "outputs": [],
      "stateMutability": "nonpayable",
      "type": "function"
    },
    {
      "inputs": [
        {
          "internalType": "address",
          "name": "operator",
          "type": "address"
        },
        {
          "internalType": "bool",
          "name": "approved",
          "type": "bool"
        }
      ],
      "name": "setApprovalForAll",
      "outputs": [],
      "stateMutability": "nonpayable",
      "type": "function"
    },
    {
      "inputs": [
        {
          "internalType": "bytes4",
          "name": "interfaceId",
          "type": "bytes4"
        }
      ],
      "name": "supportsInterface",
      "outputs": [
        {
          "internalType": "bool",
          "name": "",
          "type": "bool"
        }
      ],
      "stateMutability": "view",
      "type": "function"
    },
    {
      "inputs": [],
      "name": "symbol",
      "outputs": [
        {
          "internalType": "string",
          "name": "",
          "type": "string"
        }
      ],
      "stateMutability": "view",
      "type": "function"
    },
    {
      "inputs": [
        {
          "internalType": "uint256",
          "name": "tokenId",
          "type": "uint256"
        }
      ],
      "name": "tokenURI",
      "outputs": [
        {
          "internalType": "string",
          "name": "",
          "type": "string"
        }
      ],
      "stateMutability": "view",
      "type": "function"
    },
    {
      "inputs": [
        {
          "internalType": "address",
          "name": "from",
          "type": "address"
        },
        {
          "internalType": "address",
          "name": "to",
          "type": "address"
        },
        {
          "internalType": "uint256",
          "name": "tokenId",
          "type": "uint256"
        }
      ],
      "name": "transferFrom",
      "outputs": [],
      "stateMutability": "nonpayable",
      "type": "function"
    },
    {
      "inputs": [
        {
          "internalType": "uint256",
          "name": "_listingPrice",
          "type": "uint256"
        }
      ],
      "name": "updateListingPrice",
      "outputs": [],
      "stateMutability": "payable",
      "type": "function"
    }
  ],
  "bytecode": "0x60806040526658d15e176280006009553480156200001c57600080fd5b506040518060400160405280600a81526020017f466c6f20546f6b656e73000000000000000000000000000000000000000000008152506040518060400160405280600481526020017f464c4f4f000000000000000000000000000000000000000000000000000000008152508160009080519060200190620000a192919062000104565b508060019080519060200190620000ba92919062000104565b50505033600a60006101000a81548173ffffffffffffffffffffffffffffffffffffffff021916908373ffffffffffffffffffffffffffffffffffffffff16021790555062000219565b8280546200011290620001b4565b90600052602060002090601f01602090048101928262000136576000855562000182565b82601f106200015157805160ff191683800117855562000182565b8280016001018555821562000182579182015b828111156200018157825182559160200191906001019062000164565b5b50905062000191919062000195565b5090565b5b80821115620001b057600081600090555060010162000196565b5090565b60006002820490506001821680620001cd57607f821691505b60208210811415620001e457620001e3620001ea565b5b50919050565b7f4e487b7100000000000000000000000000000000000000000000000000000000600052602260045260246000fd5b61456f80620002296000396000f3fe6080604052600436106101355760003560e01c80636d983dd8116100ab578063ae677aa31161006f578063ae677aa314610420578063b88d4fde1461043c578063be9af53614610465578063c87b56dd14610481578063e219fc75146104be578063e985e9c5146104da57610135565b80636d983dd81461034357806370a082311461035f57806372b3b6201461039c57806395d89b41146103cc578063a22cb465146103f757610135565b806312e85585116100fd57806312e8558514610233578063202e37401461025e57806323b872dd1461028957806342842e0e146102b257806345f8fa80146102db5780636352211e1461030657610135565b806301ffc9a71461013a57806306fdde0314610177578063081812fc146101a2578063095ea7b3146101df5780630f08efe014610208575b600080fd5b34801561014657600080fd5b50610161600480360381019061015c91906130fb565b610517565b60405161016e91906137d5565b60405180910390f35b34801561018357600080fd5b5061018c6105f9565b60405161019991906137f0565b60405180910390f35b3480156101ae57600080fd5b506101c960048036038101906101c491906131a1565b61068b565b6040516101d69190613707565b60405180910390f35b3480156101eb57600080fd5b50610206600480360381019061020191906130bf565b610710565b005b34801561021457600080fd5b5061021d610828565b60405161022a91906137b3565b60405180910390f35b34801561023f57600080fd5b50610248610add565b6040516102559190613ad2565b60405180910390f35b34801561026a57600080fd5b50610273610ae7565b60405161028091906137b3565b60405180910390f35b34801561029557600080fd5b506102b060048036038101906102ab9190612fb9565b610e21565b005b3480156102be57600080fd5b506102d960048036038101906102d49190612fb9565b610e81565b005b3480156102e757600080fd5b506102f0610ea1565b6040516102fd91906137b3565b60405180910390f35b34801561031257600080fd5b5061032d600480360381019061032891906131a1565b6111db565b60405161033a9190613707565b60405180910390f35b61035d600480360381019061035891906131a1565b61128d565b005b34801561036b57600080fd5b5061038660048036038101906103819190612f54565b6114c5565b6040516103939190613ad2565b60405180910390f35b6103b660048036038101906103b1919061314d565b61157d565b6040516103c39190613ad2565b60405180910390f35b3480156103d857600080fd5b506103e16115bf565b6040516103ee91906137f0565b60405180910390f35b34801561040357600080fd5b5061041e60048036038101906104199190613083565b611651565b005b61043a600480360381019061043591906131a1565b611667565b005b34801561044857600080fd5b50610463600480360381019061045e9190613008565b611701565b005b61047f600480360381019061047a91906131a1565b611763565b005b34801561048d57600080fd5b506104a860048036038101906104a391906131a1565b61199b565b6040516104b591906137f0565b60405180910390f35b6104d860048036038101906104d391906131ca565b611aed565b005b3480156104e657600080fd5b5061050160048036038101906104fc9190612f7d565b611ce2565b60405161050e91906137d5565b60405180910390f35b60007f80ac58cd000000000000000000000000000000000000000000000000000000007bffffffffffffffffffffffffffffffffffffffffffffffffffffffff1916827bffffffffffffffffffffffffffffffffffffffffffffffffffffffff191614806105e257507f5b5e139f000000000000000000000000000000000000000000000000000000007bffffffffffffffffffffffffffffffffffffffffffffffffffffffff1916827bffffffffffffffffffffffffffffffffffffffffffffffffffffffff1916145b806105f257506105f182611d76565b5b9050919050565b60606000805461060890613d73565b80601f016020809104026020016040519081016040528092919081815260200182805461063490613d73565b80156106815780601f1061065657610100808354040283529160200191610681565b820191906000526020600020905b81548152906001019060200180831161066457829003601f168201915b5050505050905090565b600061069682611de0565b6106d5576040517f08c379a00000000000000000000000000000000000000000000000000000000081526004016106cc90613a32565b60405180910390fd5b6004600083815260200190815260200160002060009054906101000a900473ffffffffffffffffffffffffffffffffffffffff169050919050565b600061071b826111db565b90508073ffffffffffffffffffffffffffffffffffffffff168373ffffffffffffffffffffffffffffffffffffffff16141561078c576040517f08c379a000000000000000000000000000000000000000000000000000000000815260040161078390613a92565b60405180910390fd5b8073ffffffffffffffffffffffffffffffffffffffff166107ab611e4c565b73ffffffffffffffffffffffffffffffffffffffff1614806107da57506107d9816107d4611e4c565b611ce2565b5b610819576040517f08c379a000000000000000000000000000000000000000000000000000000000815260040161081090613912565b60405180910390fd5b6108238383611e54565b505050565b606060006108366007611f0d565b905060006108446008611f0d565b61084e6007611f0d565b6108589190613c77565b90506000808267ffffffffffffffff81111561089d577f4e487b7100000000000000000000000000000000000000000000000000000000600052604160045260246000fd5b6040519080825280602002602001820160405280156108d657816020015b6108c3612d1b565b8152602001906001900390816108bb5790505b50905060005b84811015610ad2573073ffffffffffffffffffffffffffffffffffffffff16600b600060018461090c9190613bf0565b815260200190815260200160002060020160009054906101000a900473ffffffffffffffffffffffffffffffffffffffff1673ffffffffffffffffffffffffffffffffffffffff161415610abf5760006001826109699190613bf0565b90506000600b60008381526020019081526020016000209050806040518060a0016040529081600082015481526020016001820160009054906101000a900473ffffffffffffffffffffffffffffffffffffffff1673ffffffffffffffffffffffffffffffffffffffff1673ffffffffffffffffffffffffffffffffffffffff1681526020016002820160009054906101000a900473ffffffffffffffffffffffffffffffffffffffff1673ffffffffffffffffffffffffffffffffffffffff1673ffffffffffffffffffffffffffffffffffffffff168152602001600382015481526020016004820160009054906101000a900460ff161515151581525050848681518110610aa2577f4e487b7100000000000000000000000000000000000000000000000000000000600052603260045260246000fd5b6020026020010181905250600185610aba9190613bf0565b945050505b8080610aca90613dd6565b9150506108dc565b508094505050505090565b6000600954905090565b60606000610af56007611f0d565b905060008060005b83811015610b9e573373ffffffffffffffffffffffffffffffffffffffff16600b6000600184610b2d9190613bf0565b815260200190815260200160002060020160009054906101000a900473ffffffffffffffffffffffffffffffffffffffff1673ffffffffffffffffffffffffffffffffffffffff161415610b8b57600183610b889190613bf0565b92505b8080610b9690613dd6565b915050610afd565b5060008267ffffffffffffffff811115610be1577f4e487b7100000000000000000000000000000000000000000000000000000000600052604160045260246000fd5b604051908082528060200260200182016040528015610c1a57816020015b610c07612d1b565b815260200190600190039081610bff5790505b50905060005b84811015610e16573373ffffffffffffffffffffffffffffffffffffffff16600b6000600184610c509190613bf0565b815260200190815260200160002060020160009054906101000a900473ffffffffffffffffffffffffffffffffffffffff1673ffffffffffffffffffffffffffffffffffffffff161415610e03576000600182610cad9190613bf0565b90506000600b60008381526020019081526020016000209050806040518060a0016040529081600082015481526020016001820160009054906101000a900473ffffffffffffffffffffffffffffffffffffffff1673ffffffffffffffffffffffffffffffffffffffff1673ffffffffffffffffffffffffffffffffffffffff1681526020016002820160009054906101000a900473ffffffffffffffffffffffffffffffffffffffff1673ffffffffffffffffffffffffffffffffffffffff1673ffffffffffffffffffffffffffffffffffffffff168152602001600382015481526020016004820160009054906101000a900460ff161515151581525050848681518110610de6577f4e487b7100000000000000000000000000000000000000000000000000000000600052603260045260246000fd5b6020026020010181905250600185610dfe9190613bf0565b945050505b8080610e0e90613dd6565b915050610c20565b508094505050505090565b610e32610e2c611e4c565b82611f1b565b610e71576040517f08c379a0000000000000000000000000000000000000000000000000000000008152600401610e6890613ab2565b60405180910390fd5b610e7c838383611ff9565b505050565b610e9c83838360405180602001604052806000815250611701565b505050565b60606000610eaf6007611f0d565b905060008060005b83811015610f58573373ffffffffffffffffffffffffffffffffffffffff16600b6000600184610ee79190613bf0565b815260200190815260200160002060010160009054906101000a900473ffffffffffffffffffffffffffffffffffffffff1673ffffffffffffffffffffffffffffffffffffffff161415610f4557600183610f429190613bf0565b92505b8080610f5090613dd6565b915050610eb7565b5060008267ffffffffffffffff811115610f9b577f4e487b7100000000000000000000000000000000000000000000000000000000600052604160045260246000fd5b604051908082528060200260200182016040528015610fd457816020015b610fc1612d1b565b815260200190600190039081610fb95790505b50905060005b848110156111d0573373ffffffffffffffffffffffffffffffffffffffff16600b600060018461100a9190613bf0565b815260200190815260200160002060010160009054906101000a900473ffffffffffffffffffffffffffffffffffffffff1673ffffffffffffffffffffffffffffffffffffffff1614156111bd5760006001826110679190613bf0565b90506000600b60008381526020019081526020016000209050806040518060a0016040529081600082015481526020016001820160009054906101000a900473ffffffffffffffffffffffffffffffffffffffff1673ffffffffffffffffffffffffffffffffffffffff1673ffffffffffffffffffffffffffffffffffffffff1681526020016002820160009054906101000a900473ffffffffffffffffffffffffffffffffffffffff1673ffffffffffffffffffffffffffffffffffffffff1673ffffffffffffffffffffffffffffffffffffffff168152602001600382015481526020016004820160009054906101000a900460ff1615151515815250508486815181106111a0577f4e487b7100000000000000000000000000000000000000000000000000000000600052603260045260246000fd5b60200260200101819052506001856111b89190613bf0565b945050505b80806111c890613dd6565b915050610fda565b508094505050505090565b6000806002600084815260200190815260200160002060009054906101000a900473ffffffffffffffffffffffffffffffffffffffff169050600073ffffffffffffffffffffffffffffffffffffffff168173ffffffffffffffffffffffffffffffffffffffff161415611284576040517f08c379a000000000000000000000000000000000000000000000000000000000815260040161127b90613952565b60405180910390fd5b80915050919050565b6000600b60008381526020019081526020016000206003015490508034146112ea576040517f08c379a00000000000000000000000000000000000000000000000000000000081526004016112e1906139b2565b60405180910390fd5b33600b600084815260200190815260200160002060020160006101000a81548173ffffffffffffffffffffffffffffffffffffffff021916908373ffffffffffffffffffffffffffffffffffffffff1602179055506001600b600084815260200190815260200160002060040160006101000a81548160ff0219169083151502179055506000600b600084815260200190815260200160002060010160006101000a81548173ffffffffffffffffffffffffffffffffffffffff021916908373ffffffffffffffffffffffffffffffffffffffff1602179055506113ce6008612260565b6113d9303384611ff9565b600a60009054906101000a900473ffffffffffffffffffffffffffffffffffffffff1673ffffffffffffffffffffffffffffffffffffffff166108fc6009549081150290604051600060405180830381858888f19350505050158015611443573d6000803e3d6000fd5b50600b600083815260200190815260200160002060010160009054906101000a900473ffffffffffffffffffffffffffffffffffffffff1673ffffffffffffffffffffffffffffffffffffffff166108fc349081150290604051600060405180830381858888f193505050501580156114c0573d6000803e3d6000fd5b505050565b60008073ffffffffffffffffffffffffffffffffffffffff168273ffffffffffffffffffffffffffffffffffffffff161415611536576040517f08c379a000000000000000000000000000000000000000000000000000000000815260040161152d90613932565b60405180910390fd5b600360008373ffffffffffffffffffffffffffffffffffffffff1673ffffffffffffffffffffffffffffffffffffffff168152602001908152602001600020549050919050565b60006115896007612260565b60006115956007611f0d565b90506115a13382612276565b6115ab8185612450565b6115b581846124c4565b8091505092915050565b6060600180546115ce90613d73565b80601f01602080910402602001604051908101604052809291908181526020018280546115fa90613d73565b80156116475780601f1061161c57610100808354040283529160200191611647565b820191906000526020600020905b81548152906001019060200180831161162a57829003601f168201915b5050505050905090565b61166361165c611e4c565b83836126c7565b5050565b3373ffffffffffffffffffffffffffffffffffffffff16600a60009054906101000a900473ffffffffffffffffffffffffffffffffffffffff1673ffffffffffffffffffffffffffffffffffffffff16146116f7576040517f08c379a00000000000000000000000000000000000000000000000000000000081526004016116ee90613892565b60405180910390fd5b8060098190555050565b61171261170c611e4c565b83611f1b565b611751576040517f08c379a000000000000000000000000000000000000000000000000000000000815260040161174890613ab2565b60405180910390fd5b61175d84848484612834565b50505050565b6000600b60008381526020019081526020016000206003015490508034146117c0576040517f08c379a00000000000000000000000000000000000000000000000000000000081526004016117b7906139d2565b60405180910390fd5b33600b600084815260200190815260200160002060020160006101000a81548173ffffffffffffffffffffffffffffffffffffffff021916908373ffffffffffffffffffffffffffffffffffffffff1602179055506001600b600084815260200190815260200160002060040160006101000a81548160ff0219169083151502179055506000600b600084815260200190815260200160002060010160006101000a81548173ffffffffffffffffffffffffffffffffffffffff021916908373ffffffffffffffffffffffffffffffffffffffff1602179055506118a46008612260565b6118af303384611ff9565b600a60009054906101000a900473ffffffffffffffffffffffffffffffffffffffff1673ffffffffffffffffffffffffffffffffffffffff166108fc6009549081150290604051600060405180830381858888f19350505050158015611919573d6000803e3d6000fd5b50600b600083815260200190815260200160002060010160009054906101000a900473ffffffffffffffffffffffffffffffffffffffff1673ffffffffffffffffffffffffffffffffffffffff166108fc349081150290604051600060405180830381858888f19350505050158015611996573d6000803e3d6000fd5b505050565b60606119a682611de0565b6119e5576040517f08c379a00000000000000000000000000000000000000000000000000000000081526004016119dc90613a12565b60405180910390fd5b6000600660008481526020019081526020016000208054611a0590613d73565b80601f0160208091040260200160405190810160405280929190818152602001828054611a3190613d73565b8015611a7e5780601f10611a5357610100808354040283529160200191611a7e565b820191906000526020600020905b815481529060010190602001808311611a6157829003601f168201915b505050505090506000611a8f612890565b9050600081511415611aa5578192505050611ae8565b600082511115611ada578082604051602001611ac29291906136e3565b60405160208183030381529060405292505050611ae8565b611ae3846128a7565b925050505b919050565b3373ffffffffffffffffffffffffffffffffffffffff16600b600084815260200190815260200160002060020160009054906101000a900473ffffffffffffffffffffffffffffffffffffffff1673ffffffffffffffffffffffffffffffffffffffff1614611b91576040517f08c379a0000000000000000000000000000000000000000000000000000000008152600401611b8890613992565b60405180910390fd5b6009543414611bd5576040517f08c379a0000000000000000000000000000000000000000000000000000000008152600401611bcc906139b2565b60405180910390fd5b6000600b600084815260200190815260200160002060040160006101000a81548160ff02191690831515021790555080600b60008481526020019081526020016000206003018190555033600b600084815260200190815260200160002060010160006101000a81548173ffffffffffffffffffffffffffffffffffffffff021916908373ffffffffffffffffffffffffffffffffffffffff16021790555030600b600084815260200190815260200160002060020160006101000a81548173ffffffffffffffffffffffffffffffffffffffff021916908373ffffffffffffffffffffffffffffffffffffffff160217905550611cd3600861294e565b611cde333084611ff9565b5050565b6000600560008473ffffffffffffffffffffffffffffffffffffffff1673ffffffffffffffffffffffffffffffffffffffff16815260200190815260200160002060008373ffffffffffffffffffffffffffffffffffffffff1673ffffffffffffffffffffffffffffffffffffffff16815260200190815260200160002060009054906101000a900460ff16905092915050565b60007f01ffc9a7000000000000000000000000000000000000000000000000000000007bffffffffffffffffffffffffffffffffffffffffffffffffffffffff1916827bffffffffffffffffffffffffffffffffffffffffffffffffffffffff1916149050919050565b60008073ffffffffffffffffffffffffffffffffffffffff166002600084815260200190815260200160002060009054906101000a900473ffffffffffffffffffffffffffffffffffffffff1673ffffffffffffffffffffffffffffffffffffffff1614159050919050565b600033905090565b816004600083815260200190815260200160002060006101000a81548173ffffffffffffffffffffffffffffffffffffffff021916908373ffffffffffffffffffffffffffffffffffffffff160217905550808273ffffffffffffffffffffffffffffffffffffffff16611ec7836111db565b73ffffffffffffffffffffffffffffffffffffffff167f8c5be1e5ebec7d5bd14f71427d1e84f3dd0314c0f7b2291e5b200ac8c7c3b92560405160405180910390a45050565b600081600001549050919050565b6000611f2682611de0565b611f65576040517f08c379a0000000000000000000000000000000000000000000000000000000008152600401611f5c906138f2565b60405180910390fd5b6000611f70836111db565b90508073ffffffffffffffffffffffffffffffffffffffff168473ffffffffffffffffffffffffffffffffffffffff161480611fdf57508373ffffffffffffffffffffffffffffffffffffffff16611fc78461068b565b73ffffffffffffffffffffffffffffffffffffffff16145b80611ff05750611fef8185611ce2565b5b91505092915050565b8273ffffffffffffffffffffffffffffffffffffffff16612019826111db565b73ffffffffffffffffffffffffffffffffffffffff161461206f576040517f08c379a000000000000000000000000000000000000000000000000000000000815260040161206690613852565b60405180910390fd5b600073ffffffffffffffffffffffffffffffffffffffff168273ffffffffffffffffffffffffffffffffffffffff1614156120df576040517f08c379a00000000000000000000000000000000000000000000000000000000081526004016120d6906138b2565b60405180910390fd5b6120ea8383836129aa565b6120f5600082611e54565b6001600360008573ffffffffffffffffffffffffffffffffffffffff1673ffffffffffffffffffffffffffffffffffffffff16815260200190815260200160002060008282546121459190613c77565b925050819055506001600360008473ffffffffffffffffffffffffffffffffffffffff1673ffffffffffffffffffffffffffffffffffffffff168152602001908152602001600020600082825461219c9190613bf0565b92505081905550816002600083815260200190815260200160002060006101000a81548173ffffffffffffffffffffffffffffffffffffffff021916908373ffffffffffffffffffffffffffffffffffffffff160217905550808273ffffffffffffffffffffffffffffffffffffffff168473ffffffffffffffffffffffffffffffffffffffff167fddf252ad1be2c89b69c2b068fc378daa952ba7f163c4a11628f55a4df523b3ef60405160405180910390a461225b8383836129af565b505050565b6001816000016000828254019250508190555050565b600073ffffffffffffffffffffffffffffffffffffffff168273ffffffffffffffffffffffffffffffffffffffff1614156122e6576040517f08c379a00000000000000000000000000000000000000000000000000000000081526004016122dd906139f2565b60405180910390fd5b6122ef81611de0565b1561232f576040517f08c379a000000000000000000000000000000000000000000000000000000000815260040161232690613872565b60405180910390fd5b61233b600083836129aa565b6001600360008473ffffffffffffffffffffffffffffffffffffffff1673ffffffffffffffffffffffffffffffffffffffff168152602001908152602001600020600082825461238b9190613bf0565b92505081905550816002600083815260200190815260200160002060006101000a81548173ffffffffffffffffffffffffffffffffffffffff021916908373ffffffffffffffffffffffffffffffffffffffff160217905550808273ffffffffffffffffffffffffffffffffffffffff16600073ffffffffffffffffffffffffffffffffffffffff167fddf252ad1be2c89b69c2b068fc378daa952ba7f163c4a11628f55a4df523b3ef60405160405180910390a461244c600083836129af565b5050565b61245982611de0565b612498576040517f08c379a000000000000000000000000000000000000000000000000000000000815260040161248f90613972565b60405180910390fd5b806006600084815260200190815260200160002090805190602001906124bf929190612d78565b505050565b60008111612507576040517f08c379a00000000000000000000000000000000000000000000000000000000081526004016124fe90613a72565b60405180910390fd5b600954341461254b576040517f08c379a0000000000000000000000000000000000000000000000000000000008152600401612542906139b2565b60405180910390fd5b6040518060a001604052808381526020013373ffffffffffffffffffffffffffffffffffffffff1681526020013073ffffffffffffffffffffffffffffffffffffffff16815260200182815260200160001515815250600b60008481526020019081526020016000206000820151816000015560208201518160010160006101000a81548173ffffffffffffffffffffffffffffffffffffffff021916908373ffffffffffffffffffffffffffffffffffffffff16021790555060408201518160020160006101000a81548173ffffffffffffffffffffffffffffffffffffffff021916908373ffffffffffffffffffffffffffffffffffffffff1602179055506060820151816003015560808201518160040160006101000a81548160ff021916908315150217905550905050612684333084611ff9565b817fb640004f1d14576d0c209e240cad0410e0d8c0c33a09375861fbadae2588a98d33308460006040516126bb9493929190613722565b60405180910390a25050565b8173ffffffffffffffffffffffffffffffffffffffff168373ffffffffffffffffffffffffffffffffffffffff161415612736576040517f08c379a000000000000000000000000000000000000000000000000000000000815260040161272d906138d2565b60405180910390fd5b80600560008573ffffffffffffffffffffffffffffffffffffffff1673ffffffffffffffffffffffffffffffffffffffff16815260200190815260200160002060008473ffffffffffffffffffffffffffffffffffffffff1673ffffffffffffffffffffffffffffffffffffffff16815260200190815260200160002060006101000a81548160ff0219169083151502179055508173ffffffffffffffffffffffffffffffffffffffff168373ffffffffffffffffffffffffffffffffffffffff167f17307eab39ab6107e8899845ad3d59bd9653f200f220920489ca2b5937696c318360405161282791906137d5565b60405180910390a3505050565b61283f848484611ff9565b61284b848484846129b4565b61288a576040517f08c379a000000000000000000000000000000000000000000000000000000000815260040161288190613832565b60405180910390fd5b50505050565b606060405180602001604052806000815250905090565b60606128b282611de0565b6128f1576040517f08c379a00000000000000000000000000000000000000000000000000000000081526004016128e890613a52565b60405180910390fd5b60006128fb612890565b9050600081511161291b5760405180602001604052806000815250612946565b8061292584612b4b565b6040516020016129369291906136e3565b6040516020818303038152906040525b915050919050565b6000816000015490506000811161299a576040517f08c379a000000000000000000000000000000000000000000000000000000000815260040161299190613812565b60405180910390fd5b6001810382600001819055505050565b505050565b505050565b60006129d58473ffffffffffffffffffffffffffffffffffffffff16612cf8565b15612b3e578373ffffffffffffffffffffffffffffffffffffffff1663150b7a026129fe611e4c565b8786866040518563ffffffff1660e01b8152600401612a209493929190613767565b602060405180830381600087803b158015612a3a57600080fd5b505af1925050508015612a6b57506040513d601f19601f82011682018060405250810190612a689190613124565b60015b612aee573d8060008114612a9b576040519150601f19603f3d011682016040523d82523d6000602084013e612aa0565b606091505b50600081511415612ae6576040517f08c379a0000000000000000000000000000000000000000000000000000000008152600401612add90613832565b60405180910390fd5b805181602001fd5b63150b7a0260e01b7bffffffffffffffffffffffffffffffffffffffffffffffffffffffff1916817bffffffffffffffffffffffffffffffffffffffffffffffffffffffff191614915050612b43565b600190505b949350505050565b60606000821415612b93576040518060400160405280600181526020017f30000000000000000000000000000000000000000000000000000000000000008152509050612cf3565b600082905060005b60008214612bc5578080612bae90613dd6565b915050600a82612bbe9190613c46565b9150612b9b565b60008167ffffffffffffffff811115612c07577f4e487b7100000000000000000000000000000000000000000000000000000000600052604160045260246000fd5b6040519080825280601f01601f191660200182016040528015612c395781602001600182028036833780820191505090505b5090505b60008514612cec57600182612c529190613c77565b9150600a85612c619190613e1f565b6030612c6d9190613bf0565b60f81b818381518110612ca9577f4e487b7100000000000000000000000000000000000000000000000000000000600052603260045260246000fd5b60200101907effffffffffffffffffffffffffffffffffffffffffffffffffffffffffffff1916908160001a905350600a85612ce59190613c46565b9450612c3d565b8093505050505b919050565b6000808273ffffffffffffffffffffffffffffffffffffffff163b119050919050565b6040518060a0016040528060008152602001600073ffffffffffffffffffffffffffffffffffffffff168152602001600073ffffffffffffffffffffffffffffffffffffffff168152602001600081526020016000151581525090565b828054612d8490613d73565b90600052602060002090601f016020900481019282612da65760008555612ded565b82601f10612dbf57805160ff1916838001178555612ded565b82800160010185558215612ded579182015b82811115612dec578251825591602001919060010190612dd1565b5b509050612dfa9190612dfe565b5090565b5b80821115612e17576000816000905550600101612dff565b5090565b6000612e2e612e2984613b12565b613aed565b905082815260208101848484011115612e4657600080fd5b612e51848285613d31565b509392505050565b6000612e6c612e6784613b43565b613aed565b905082815260208101848484011115612e8457600080fd5b612e8f848285613d31565b509392505050565b600081359050612ea6816144dd565b92915050565b600081359050612ebb816144f4565b92915050565b600081359050612ed08161450b565b92915050565b600081519050612ee58161450b565b92915050565b600082601f830112612efc57600080fd5b8135612f0c848260208601612e1b565b91505092915050565b600082601f830112612f2657600080fd5b8135612f36848260208601612e59565b91505092915050565b600081359050612f4e81614522565b92915050565b600060208284031215612f6657600080fd5b6000612f7484828501612e97565b91505092915050565b60008060408385031215612f9057600080fd5b6000612f9e85828601612e97565b9250506020612faf85828601612e97565b9150509250929050565b600080600060608486031215612fce57600080fd5b6000612fdc86828701612e97565b9350506020612fed86828701612e97565b9250506040612ffe86828701612f3f565b9150509250925092565b6000806000806080858703121561301e57600080fd5b600061302c87828801612e97565b945050602061303d87828801612e97565b935050604061304e87828801612f3f565b925050606085013567ffffffffffffffff81111561306b57600080fd5b61307787828801612eeb565b91505092959194509250565b6000806040838503121561309657600080fd5b60006130a485828601612e97565b92505060206130b585828601612eac565b9150509250929050565b600080604083850312156130d257600080fd5b60006130e085828601612e97565b92505060206130f185828601612f3f565b9150509250929050565b60006020828403121561310d57600080fd5b600061311b84828501612ec1565b91505092915050565b60006020828403121561313657600080fd5b600061314484828501612ed6565b91505092915050565b6000806040838503121561316057600080fd5b600083013567ffffffffffffffff81111561317a57600080fd5b61318685828601612f15565b925050602061319785828601612f3f565b9150509250929050565b6000602082840312156131b357600080fd5b60006131c184828501612f3f565b91505092915050565b600080604083850312156131dd57600080fd5b60006131eb85828601612f3f565b92505060206131fc85828601612f3f565b9150509250929050565b6000613212838361365d565b60a08301905092915050565b61322781613cbd565b82525050565b61323681613cab565b82525050565b600061324782613b84565b6132518185613bb2565b935061325c83613b74565b8060005b8381101561328d5781516132748882613206565b975061327f83613ba5565b925050600181019050613260565b5085935050505092915050565b6132a381613ccf565b82525050565b6132b281613ccf565b82525050565b60006132c382613b8f565b6132cd8185613bc3565b93506132dd818560208601613d40565b6132e681613f0c565b840191505092915050565b60006132fc82613b9a565b6133068185613bd4565b9350613316818560208601613d40565b61331f81613f0c565b840191505092915050565b600061333582613b9a565b61333f8185613be5565b935061334f818560208601613d40565b80840191505092915050565b6000613368601b83613bd4565b915061337382613f1d565b602082019050919050565b600061338b603283613bd4565b915061339682613f46565b604082019050919050565b60006133ae602583613bd4565b91506133b982613f95565b604082019050919050565b60006133d1601c83613bd4565b91506133dc82613fe4565b602082019050919050565b60006133f4603383613bd4565b91506133ff8261400d565b604082019050919050565b6000613417602483613bd4565b91506134228261405c565b604082019050919050565b600061343a601983613bd4565b9150613445826140ab565b602082019050919050565b600061345d602c83613bd4565b9150613468826140d4565b604082019050919050565b6000613480603883613bd4565b915061348b82614123565b604082019050919050565b60006134a3602a83613bd4565b91506134ae82614172565b604082019050919050565b60006134c6602983613bd4565b91506134d1826141c1565b604082019050919050565b60006134e9602e83613bd4565b91506134f482614210565b604082019050919050565b600061350c601b83613bd4565b91506135178261425f565b602082019050919050565b600061352f601e83613bd4565b915061353a82614288565b602082019050919050565b6000613552604083613bd4565b915061355d826142b1565b604082019050919050565b6000613575602083613bd4565b915061358082614300565b602082019050919050565b6000613598603183613bd4565b91506135a382614329565b604082019050919050565b60006135bb602c83613bd4565b91506135c682614378565b604082019050919050565b60006135de602f83613bd4565b91506135e9826143c7565b604082019050919050565b6000613601601883613bd4565b915061360c82614416565b602082019050919050565b6000613624602183613bd4565b915061362f8261443f565b604082019050919050565b6000613647603183613bd4565b91506136528261448e565b604082019050919050565b60a08201600082015161367360008501826136c5565b506020820151613686602085018261321e565b506040820151613699604085018261321e565b5060608201516136ac60608501826136c5565b5060808201516136bf608085018261329a565b50505050565b6136ce81613d27565b82525050565b6136dd81613d27565b82525050565b60006136ef828561332a565b91506136fb828461332a565b91508190509392505050565b600060208201905061371c600083018461322d565b92915050565b6000608082019050613737600083018761322d565b613744602083018661322d565b61375160408301856136d4565b61375e60608301846132a9565b95945050505050565b600060808201905061377c600083018761322d565b613789602083018661322d565b61379660408301856136d4565b81810360608301526137a881846132b8565b905095945050505050565b600060208201905081810360008301526137cd818461323c565b905092915050565b60006020820190506137ea60008301846132a9565b92915050565b6000602082019050818103600083015261380a81846132f1565b905092915050565b6000602082019050818103600083015261382b8161335b565b9050919050565b6000602082019050818103600083015261384b8161337e565b9050919050565b6000602082019050818103600083015261386b816133a1565b9050919050565b6000602082019050818103600083015261388b816133c4565b9050919050565b600060208201905081810360008301526138ab816133e7565b9050919050565b600060208201905081810360008301526138cb8161340a565b9050919050565b600060208201905081810360008301526138eb8161342d565b9050919050565b6000602082019050818103600083015261390b81613450565b9050919050565b6000602082019050818103600083015261392b81613473565b9050919050565b6000602082019050818103600083015261394b81613496565b9050919050565b6000602082019050818103600083015261396b816134b9565b9050919050565b6000602082019050818103600083015261398b816134dc565b9050919050565b600060208201905081810360008301526139ab816134ff565b9050919050565b600060208201905081810360008301526139cb81613522565b9050919050565b600060208201905081810360008301526139eb81613545565b9050919050565b60006020820190508181036000830152613a0b81613568565b9050919050565b60006020820190508181036000830152613a2b8161358b565b9050919050565b60006020820190508181036000830152613a4b816135ae565b9050919050565b60006020820190508181036000830152613a6b816135d1565b9050919050565b60006020820190508181036000830152613a8b816135f4565b9050919050565b60006020820190508181036000830152613aab81613617565b9050919050565b60006020820190508181036000830152613acb8161363a565b9050919050565b6000602082019050613ae760008301846136d4565b92915050565b6000613af7613b08565b9050613b038282613da5565b919050565b6000604051905090565b600067ffffffffffffffff821115613b2d57613b2c613edd565b5b613b3682613f0c565b9050602081019050919050565b600067ffffffffffffffff821115613b5e57613b5d613edd565b5b613b6782613f0c565b9050602081019050919050565b6000819050602082019050919050565b600081519050919050565b600081519050919050565b600081519050919050565b6000602082019050919050565b600082825260208201905092915050565b600082825260208201905092915050565b600082825260208201905092915050565b600081905092915050565b6000613bfb82613d27565b9150613c0683613d27565b9250827fffffffffffffffffffffffffffffffffffffffffffffffffffffffffffffffff03821115613c3b57613c3a613e50565b5b828201905092915050565b6000613c5182613d27565b9150613c5c83613d27565b925082613c6c57613c6b613e7f565b5b828204905092915050565b6000613c8282613d27565b9150613c8d83613d27565b925082821015613ca057613c9f613e50565b5b828203905092915050565b6000613cb682613d07565b9050919050565b6000613cc882613d07565b9050919050565b60008115159050919050565b60007fffffffff0000000000000000000000000000000000000000000000000000000082169050919050565b600073ffffffffffffffffffffffffffffffffffffffff82169050919050565b6000819050919050565b82818337600083830152505050565b60005b83811015613d5e578082015181840152602081019050613d43565b83811115613d6d576000848401525b50505050565b60006002820490506001821680613d8b57607f821691505b60208210811415613d9f57613d9e613eae565b5b50919050565b613dae82613f0c565b810181811067ffffffffffffffff82111715613dcd57613dcc613edd565b5b80604052505050565b6000613de182613d27565b91507fffffffffffffffffffffffffffffffffffffffffffffffffffffffffffffffff821415613e1457613e13613e50565b5b600182019050919050565b6000613e2a82613d27565b9150613e3583613d27565b925082613e4557613e44613e7f565b5b828206905092915050565b7f4e487b7100000000000000000000000000000000000000000000000000000000600052601160045260246000fd5b7f4e487b7100000000000000000000000000000000000000000000000000000000600052601260045260246000fd5b7f4e487b7100000000000000000000000000000000000000000000000000000000600052602260045260246000fd5b7f4e487b7100000000000000000000000000000000000000000000000000000000600052604160045260246000fd5b6000601f19601f8301169050919050565b7f436f756e7465723a2064656372656d656e74206f766572666c6f770000000000600082015250565b7f4552433732313a207472616e7366657220746f206e6f6e20455243373231526560008201527f63656976657220696d706c656d656e7465720000000000000000000000000000602082015250565b7f4552433732313a207472616e736665722066726f6d20696e636f72726563742060008201527f6f776e6572000000000000000000000000000000000000000000000000000000602082015250565b7f4552433732313a20746f6b656e20616c7265616479206d696e74656400000000600082015250565b7f4f6e6c79206d61726b6574706c616365206f776e65722063616e20757064617460008201527f6520746865206c697374696e6720707269636500000000000000000000000000602082015250565b7f4552433732313a207472616e7366657220746f20746865207a65726f2061646460008201527f7265737300000000000000000000000000000000000000000000000000000000602082015250565b7f4552433732313a20617070726f766520746f2063616c6c657200000000000000600082015250565b7f4552433732313a206f70657261746f7220717565727920666f72206e6f6e657860008201527f697374656e7420746f6b656e0000000000000000000000000000000000000000602082015250565b7f4552433732313a20617070726f76652063616c6c6572206973206e6f74206f7760008201527f6e6572206e6f7220617070726f76656420666f7220616c6c0000000000000000602082015250565b7f4552433732313a2062616c616e636520717565727920666f7220746865207a6560008201527f726f206164647265737300000000000000000000000000000000000000000000602082015250565b7f4552433732313a206f776e657220717565727920666f72206e6f6e657869737460008201527f656e7420746f6b656e0000000000000000000000000000000000000000000000602082015250565b7f45524337323155524953746f726167653a2055524920736574206f66206e6f6e60008201527f6578697374656e7420746f6b656e000000000000000000000000000000000000602082015250565b7f4f6e6c79206f776e65722063616e20726573656c6c20746f6b656e0000000000600082015250565b7f5072696365206d757374206d61746368206c697374696e672070726963650000600082015250565b7f506c65617365207375626d6974207468652061736b696e67207072696365206960008201527f6e206f7264657220746f20636f6d706c65746520746865207075726368617365602082015250565b7f4552433732313a206d696e7420746f20746865207a65726f2061646472657373600082015250565b7f45524337323155524953746f726167653a2055524920717565727920666f722060008201527f6e6f6e6578697374656e7420746f6b656e000000000000000000000000000000602082015250565b7f4552433732313a20617070726f76656420717565727920666f72206e6f6e657860008201527f697374656e7420746f6b656e0000000000000000000000000000000000000000602082015250565b7f4552433732314d657461646174613a2055524920717565727920666f72206e6f60008201527f6e6578697374656e7420746f6b656e0000000000000000000000000000000000602082015250565b7f5072696365206d757374206265206174206c6561737420310000000000000000600082015250565b7f4552433732313a20617070726f76616c20746f2063757272656e74206f776e6560008201527f7200000000000000000000000000000000000000000000000000000000000000602082015250565b7f4552433732313a207472616e736665722063616c6c6572206973206e6f74206f60008201527f776e6572206e6f7220617070726f766564000000000000000000000000000000602082015250565b6144e681613cab565b81146144f157600080fd5b50565b6144fd81613ccf565b811461450857600080fd5b50565b61451481613cdb565b811461451f57600080fd5b50565b61452b81613d27565b811461453657600080fd5b5056fea26469706673582212201e00ed9681d88e000fd622813e0105451a124b4ed0d89f5f755ec455d3815f9b64736f6c63430008040033",
  "linkReferences": {},
  "deployedLinkReferences": {}
}